:020000040800F2
:1000000060130020DD010008F90F00084B0E000806
:10001000F50F0008B50600083D300008000000009C
:10002000000000000000000000000000272C000875
:10003000050B000800000000C7100008112D000883
:1000400041300008C5100008752D0008E1110008B6
:100050001F0B0008DD110008110B0008150B00082C
:10006000170B0008190B00081B0B00088909000872
:100070008B0900088D0900088F0900089109000804
:100080009309000895090008B106000839300008F6
:100090003B300008B9060008BB0600081D0B00082D
:1000A000772D00087D2D00087B2D0008792D000894
:1000B0007F2D0008812D0008832D0008510E0008B7
:1000C0004F0E0008550E0008530E0008212C0008A2
:1000D000232C0008992D0008D12D0008D32D0008ED
:1000E000130B0008DF110008373000088B2D0008C3
:1000F000912D00088F2D00088D2D0008B3060008F3
:10010000210B0008F1130008852D0008252C00089C
:10011000932D0008952D0008872D0008892D0008D3
:1001200097090008990900089B0900089D09000823
:1001300000F002F800F042F80AA090E8000C8244B7
:100140008344AAF10107DA4501D100F037F8AFF294
:10015000090EBAE80F0013F0010F18BFFB1A43F0A5
:1001600001031847C4370000E4370000103A24BFE9
:1001700078C878C1FAD8520724BF30C830C144BF0C
:1001800004680C607047000000230024002500264E
:10019000103A28BF78C1FBD8520728BF30C148BFEA
:1001A0000B607047642900F06F80782900F0A88008
:1001B000002070471FB51FBD10B510BD00F045FAF7
:1001C0001146FFF7F7FF02F061FF00F063FA03B496
:1001D000FFF7F2FF03BC02F03BFF00000948804735
:1001E00009480047FEE7FEE7FEE7FEE7FEE7FEE719
:1001F000FEE7FEE7FEE7FEE704480549054A064B31
:1002000070470000152D000831010008600D002026
:1002100060130020600F0020600F00207047000076
:100220000FB4044910B503AA029800F097F910BC66
:100230005DF814FB0C00002070B504468569006869
:10024000C10601D5302600E02026C00707D070BDCA
:10025000D4E9012130469047206A401C20626D1E7F
:10026000F6D570BD70B5044685690078C00707D122
:1002700070BDD4E9012120209047206A401C2062F3
:100280006D1EF6D570BD00002DE9F0410646002434
:1002900010687529314616A510D0AFF300800028EC
:1002A00002DA404213A507E031688A0701D512A59A
:1002B00002E0490704D511A5012401E0AFF3008055
:1002C00000210A2206F1240709E0B0FBF2FCB0FB92
:1002D000F2F302FB1C00303078541846491C002809
:1002E000F3D123462A463046BDE8F04100F0DCB8A1
:1002F000000000002D0000002B0000002000000086
:1003000070B504460D4621461068AFF30080218881
:10031000090502D50F4A7A4402E00E4A7A440E32A9
:10032000002104F1240305E000F00F060009965DAA
:100330005E54491C0028F7D120780023000704D51B
:10034000702D02D009B1022311322046BDE8704061
:1003500000F0AAB8463300002DE9F05F8946044654
:100360004FF0000ADFF824B1FB44C0F820A020467B
:10037000E168884700287DD0252806D0D4E90121EE
:100380009047206A401C2062F1E700255F46204626
:10039000E16888472028064607DB312E05D2B819C8
:1003A00010F8200C08B10543F1E7A80701D525F0A6
:1003B0000405C4F81CA00027C4F818A02A2E09D0F0
:1003C000304602F03EFE38B304EB8708303EC8F8F2
:1003D000186019E059F8041B204604EB870291616C
:1003E000E1688847012F064618D1E069002820DA25
:1003F00025F020051DE0D8F8180000EB800006EB82
:1004000040003038C8F818002046E16888470646A2
:1004100002F017FE0028EED1012F0AD02E2E08D1AF
:100420002046E16888477F1C0646022F45F02005DC
:10043000C4DBA069002803DA404245F00105A06151
:10044000E80701D025F01005A6B1A6F14100192852
:1004500002D8203645F400654A46314620462560DC
:100460004D46FFF79FFE60B1012807D0ED1D25F036
:10047000070000E007E000F1080978E705F104094A
:1004800075E730467AE7206ABDE8F09F1C3300002C
:1004900002F0FF0343EA032242EA024200F072B88C
:1004A00070477047704770472DE9F0470D469946F1
:1004B0009246044600F124080168880604D5E069E4
:1004C00021F01001216000E00120A84201DD471B5E
:1004D00000E00027A1697A1902EB0900081AA0615F
:1004E0002078C00602D42046FFF7A6FE002608E0CA
:1004F000D4E901211AF806009047206A401C761CB6
:1005000020624E45F4DB2078C0060AD52046FFF76E
:1005100093FE06E0D4E9012130209047206A401C78
:100520002062381EA7F10107F4DC07E0D4E90121BD
:1005300018F805009047206A401C2062281EA5F18B
:100540000105F3DC2046FFF78DFE2078000602D57A
:100550000220BDE8F0870120FBE70000074B70B5E3
:100560000D467B4400F033F80446284600F042F87C
:1005700010B14FF0FF3070BD204670BD032B00005E
:100580004FF000020429C0F0128010F0030C00F0BC
:100590003780CCF1040CBCF1020F18BF00F8012B1E
:1005A000A8BF20F8022BA1EB0C0100F029B85FEAEC
:1005B000C17C24BF00F8012B00F8012B48BF00F8D4
:1005C000012B704701694A1C02610878704700B529
:1005D0008FB0CDE901310021059105497944CDE97C
:1005E000031011466846FFF7B7FE0FB000BD0000CC
:1005F000E5FFFFFF007B00F0800070474FF0000236
:1006000000B5134694469646203922BFA0E80C5008
:10061000A0E80C50B1F12001BFF4F7AF090728BFE3
:10062000A0E80C5048BF0CC05DF804EB890028BF5F
:1006300040F8042B08BF704748BF20F8022B11F088
:10064000804F18BF00F8012B7047754600F02CF85A
:10065000AE4605006946534620F00700854618B0AF
:1006600020B5FFF7C9FDBDE820404FF000064FF070
:1006700000074FF000084FF0000B21F00701AC46D7
:10068000ACE8C009ACE8C009ACE8C009ACE8C009F6
:100690008D46704710B50446AFF300802046BDE894
:1006A0001040FFF794BD000000487047000D002087
:1006B0007047704700BFFEE77047704770B52A2546
:1006C00042F2107400E0641E24B1802000F064FE49
:1006D0000028F8D014B90325284670BD40F2FF5019
:1006E00000F012FE2846F8E72DE9F04106462A27D9
:1006F0004848456B01E04748456B05F04500002838
:10070000F9D005F0040030B10327042000F0FCFD0F
:100710003846BDE8F08105F0010028B1012701202D
:1007200000F0F2FD3846F4E700F030FEB04202D0AF
:1007300010273846EDE740F2FF5000F0E5FD0020BD
:1007400000F04AFE04463448204008B93846E0E745
:1007500004F0004008B11C20DBE704F0804008B141
:100760000920D6E704F0005008B10A20D1E704F0D0
:10077000805008B10B20CCE704F0006008B10C20D9
:10078000C7E704F0806008B10D20C2E704F0807074
:1007900008B10E20BDE704F4000008B10F20B8E74F
:1007A00004F4800008B11020B3E704F4001008B18D
:1007B0001120AEE704F4801008B11220A9E704F478
:1007C000002008B11320A4E704F4802008B114200D
:1007D0009FE704F4003008B115209AE704F4803054
:1007E00008B1162095E704F4004008B1172090E7FF
:1007F00004F4804008B118208BE704F4005008B1DD
:10080000192086E704F0080008B11A2081E738466D
:100810007FE700000080014008E0FFFD70B52A2559
:100820001048446B01E00F48446B04F04500002879
:10083000F9D004F0040028B10325042000F064FD81
:10084000284670BD04F0010028B10125012000F008
:100850005BFD2846F5E740F2FF5000F055FD2846C5
:10086000EFE700000080014070B52A250B48446B7B
:1008700001E00A48446B04F045000028F9D004F078
:10088000040028B10325042000F03EFD284670BD79
:1008900040F2FF5000F038FD2846F8E700800140A4
:1008A0002DE9F04106460F464FF02A082248456BD5
:1008B00001E02148456B05F045000028F9D005F01E
:1008C000040038B14FF00308042000F01DFD40463D
:1008D000BDE8F08105F0010030B14FF001080120C2
:1008E00000F012FD4046F3E700F050FDB04203D0A7
:1008F0004FF010084046EBE740F2FF5000F004FDD7
:10090000002000F069FD044604F4604018B9200C92
:1009100038804046DCE704F4005008B11320D7E7E4
:1009200004F4804008B11020D2E704F4004008B17C
:100930000F20CDE74046CBE70080014070B52A2666
:1009400042F210750F48446B02E06D1E0D48446B77
:1009500004F0450008B9002DF7D115B104F00400EA
:1009600028B10326042000F0CFFC304670BD04F00F
:10097000400028B12A26402000F0C6FC3046F5E7AA
:100980003046F3E70080014070477047704770477A
:100990007047704770477047704770477047000056
:1009A00000F0805111B10349086001E0024948603C
:1009B00070470000040402400000024021B10268B8
:1009C00042F00102026004E002684FF6FE731A4032
:1009D0000260704701460020002201F0805313B1ED
:1009E000054B1A6801E0054B1A6802EA01030BB1D6
:1009F000012000E000207047000402400000024097
:100A000010B50022026847F6F0739A430C6A8B68AF
:100A100023430C6923434C6923438C692343CC69EA
:100A200023434C6A23438C6A23431A430260CB68F6
:100A300043600B6883604B68C36010BD30B58BB0FA
:100A400005460C461348FFF7ABFF00211248FFF79D
:100A5000B5FF12480090019500200290A008039075
:100A60000020049080200590800006908000079070
:100A7000002008904FF40050099000200A90694629
:100A80000548FFF7BDFF01210348FFF797FF0BB0B3
:100A900030BD000000F0001044040240808001409E
:100AA00030B58BB005460C461348FFF779FF00219F
:100AB0001248FFF783FF1248009001951020029022
:100AC000A0080390002004908020059080000690EC
:100AD00080000790002008904FF4005009900020FB
:100AE0000A9069460548FFF78BFF01210348FFF78D
:100AF00065FF0BB030BD000000F000104404024060
:100B000080800140704700E0401E0028FCD1704703
:100B1000704770477047704770477047704770471D
:100B2000704700002DE9FC4107460D4600262A24A7
:100B300000200090019008205C4908601020486067
:100B4000402088600020C8604FF48060086108463B
:100B500000F080FC1020FFF7C7FD04462A2C02D0CD
:100B60002046BDE8FC815248008800044F490860D7
:100B700037204860402088600020C8604FF48060C3
:100B80000861084600F066FC3720FFF7ADFD04461B
:100B90002A2C01D02046E4E746484749086008204F
:100BA0004860302088600220C86000200861012071
:100BB0004861084600F0C0FB00203C490860332033
:100BC0004860402088600020C8604FF48060086161
:100BD000084600F03FFC3320FFF786FD04462A2C30
:100BE00001D02046BDE709E04FF4001000F0D4FB2F
:100BF00020B100F029FC4DF82600761C2F48406BF0
:100C000040F22A6108400028EED0082000F0C4FB22
:100C100028B1082000F078FB04242046A1E7022038
:100C200000F0BAFB28B1022000F06EFB022420463F
:100C300097E7202000F0B0FB28B1202000F064FBF3
:100C4000062420468DE74FF4007000F0A5FB30B17C
:100C50004FF4007000F058FB0724204681E740F273
:100C6000FF5000F051FB00980006009901F47F410D
:100C700040EA0120009901F47F0140EA1120009927
:100C800040EA1160686001980006019901F47F4113
:100C900040EA0120019901F47F0140EA1120019905
:100CA00040EA1160286020465BE70000D40C002079
:100CB00014000020FFFF0F00E80C0020008001401E
:100CC00008B50121082000F00FFA4FF47040ADF88C
:100CD000000003208DF8020010208DF80300694603
:100CE000014800F023F808BD000C014008B50121BF
:100CF000302000F0F9F94FF4F850ADF8000003206F
:100D00008DF8020018208DF803006946054800F0B0
:100D10000DF80420ADF800006946034800F006F81D
:100D200008BD000000100140001401402DE9F04111
:100D3000024600250026002000230024002791F809
:100D400003C00CF00F0591F803C00CF0100CBCF1BF
:100D5000000F03D091F802C04CEA050591F800C0DD
:100D6000BCF1000F31D0146800202BE04FF0010CD3
:100D70000CFA00F3B1F800C00CEA03069E4220D141
:100D800083004FF00F0C0CFA03F7BC4305FA03FC89
:100D90004CEA040491F803C0BCF1280F06D14FF0CF
:100DA000010C0CFA00FCC2F814C00AE091F803C070
:100DB000BCF1480F05D14FF0010C0CFA00FCC2F851
:100DC00010C0401C0828D1D31460B1F800C0BCF199
:100DD000FF0F34DD546800202EE000F1080C4FF0C6
:100DE000010808FA0CF3B1F800C00CEA03069E42B1
:100DF00021D183004FF00F0C0CFA03F7BC4305FA26
:100E000003FC4CEA040491F803C0BCF1280F05D19F
:100E100000F1080C08FA0CF8C2F8148091F803C02D
:100E2000BCF1480F07D100F1080C4FF0010808FA97
:100E30000CF8C2F81080401C0828CED35460BDE8DE
:100E4000F081416170470161704700BFFEE7704764
:100E500070477047704700007CB504462A25002083
:100E6000019000905F48008800045F4908600D20F1
:100E70004860402088600020C8604FF480600861AE
:100E8000084600F0E7FA5948406B009002E05748E6
:100E9000406B0090009800F045000028F7D00098C3
:100EA00000F0040028B10325042000F02DFA2846A4
:100EB0007CBD009800F0010028B10125012000F060
:100EC00023FA2846F4E700F061FA009000980D2814
:100ED00002D010252846EBE740F2FF5000F014FA4C
:100EE000002000F079FA01900198C0F343202070AF
:100EF0003F490198084008B92846D9E7019800F011
:100F0000004008B11C20D3E7019800F0804008B1F0
:100F10000920CDE7019800F0005008B10A20C7E78A
:100F2000019800F0805008B10B20C1E7019800F053
:100F3000006008B10C20BBE7019800F0806008B1A8
:100F40000D20B5E7019800F0807008B10E20AFE7E2
:100F5000019800F4000008B10F20A9E7019800F4FF
:100F6000800008B11020A3E7019800F4001008B138
:100F700011209DE7019800F4801008B1122097E736
:100F8000019800F4002008B1132091E7019800F4C3
:100F9000802008B114208BE7019800F4003008B1DC
:100FA000152085E7019800F4803008B116207FE70E
:100FB000019800F4004008B1172079E7019800F487
:100FC000804008B1182073E7019800F4005008B180
:100FD00019206DE7019800F0080008B11A2067E7B2
:100FE000284665E714000020D40C00200080014052
:100FF00008E0FFFD00BFFEE7704708B54FF4C06092
:1010000000F056F831208DF8000000208DF8010026
:101010008DF8020001208DF80300684600F010F8FA
:1010200025208DF8000001208DF8010000208DF8AA
:10103000020001208DF80300684600F001F808BDA9
:1010400070B5002100230F22C47804B3154C246826
:1010500004F4E064C4F5E064210AC1F10403CA4069
:10106000447804FA03F184781440214309010E4CBA
:101070000678A155047804F01F050124AC400578DA
:101080006D11AD0005F1E025C5F8004109E00478D7
:1010900004F01F050124AC40044D0678761145F894
:1010A000264070BD0CED00E000E400E080E100E0CF
:1010B00002490143024A1160704700000000FA052E
:1010C0000CED00E07047704729B1064A52690243AF
:1010D000044B5A6104E0034A52698243014B5A614E
:1010E000704700000010024029B1064A926902438D
:1010F000044B9A6104E0034A92698243014B9A616E
:10110000704700000010024030B50021002200248A
:1011100000232D4D6D6805F00C0121B1042905D087
:10112000082923D105E0294D056022E0274D0560FF
:101130001FE0254D6D6805F47012234D6D6805F4B0
:101140008034022505EB92421CB9214D55430560C0
:101150000BE01D4D6D6805F400351DB11C4D554368
:10116000056002E0194D5543056002E0174D05602A
:1011700000BF00BF144D6D6805F0F0010909154D61
:101180006B5C0568DD4045600F4D6D6805F4E061FE
:10119000090A104D6B5C4568DD4085600A4D6D683D
:1011A00005F46051C90A0B4D6B5C4568DD40C560B4
:1011B000054D6D6805F44041890B074D6B5CC568B2
:1011C000B5FBF3F5056130BD0010024000127A0056
:1011D00000093D003800002048000020704770479B
:1011E000704700007CB505462A240020009001903D
:1011F00000F0F2F800F0007010B10E2420467CBD23
:101200003F49098888B26946FFF78CFC04462A2CBE
:1012100001D02046F3E7012D38D1019800F4802059
:10122000002830D03648008800043649086037204E
:101230004860402088600020C860A8020861084615
:1012400000F008F93720FFF74FFA04462A2C01D0A6
:101250002046D4E702202B49086006204860402041
:1012600088600020C8604FF480600861084600F084
:10127000F1F80620FFF738FA04462A2C01D0204660
:10128000BDE72046BBE725242046B8E7019800F4D7
:10129000803078B31A48008800041A490860372063
:1012A0004860402088600020C8604FF4806008617A
:1012B000084600F0CFF83720FFF716FA04462A2C2C
:1012C00001D020469BE700200E49086006204860B8
:1012D000402088600020C8604FF4806008610846A4
:1012E00000F0B8F80620FFF7FFF904462A2C02D0D8
:1012F000204684E701E0204681E7252420467EE75A
:1013000014000020D40C00200149886370470000BD
:10131000008001400149886370470000008001405F
:101320000149086070470000A00030420149086090
:10133000704700008C05304200210A4B02685A6257
:1013400042689A621A46D16A21F0F701D0E9022375
:101350001A4303691A4343691A431143014AD1628C
:101360007047000000800140002006490860486086
:101370008860C86048628862C86203488863002049
:10138000C863704700800140FF07C0000148006942
:10139000C0B270470080014001460020034A526BF2
:1013A0000A400AB1012000E000207047008001409F
:1013B00001460020034A526B0A400AB1012000E0B6
:1013C00000207047008001400248006800F00300E0
:1013D000704700000080014008B5014600200090E1
:1013E0000248084400900098006808BD148001403D
:1013F00010B500F03FFC10BD29B1064AD26B024384
:10140000044BDA6304E0034AD26B8243014BDA6394
:10141000704700000080014000210A4A516847F6E9
:10142000FF629143027D83681A4343681A43C3688D
:101430001A4303681A4303691A431143014A51606E
:1014400070470000008001400148006870470000BC
:10145000808001400021094B02689A601A46D168D9
:101460006FF30A01D0E901231A43C3681A430369E1
:101470001A431143014AD1607047000000800140C7
:101480000549096821F00301034A11601146096802
:10149000014311607047000000800140014908606D
:1014A000704700008080014070B504462A2522481C
:1014B0000068032802D12725284670BD1E48006811
:1014C00038B11D480068012803D01B480068022875
:1014D00030D1B4F5805F02D127252846EDE7B4F579
:1014E000006F15D10120FFF77DFE05462A2D21D181
:1014F00001201249087500200860486088604FF498
:101500000060C860002008610846FFF785FF11E011
:101510000020FFF767FE05462A2D0BD10120074961
:1015200008750020086048608860C8600861084647
:10153000FFF772FF2846C0E710000020BC0C002017
:101540002DE9FC4105460E462A2400270020019083
:10155000009046484068202101EA105018B925241F
:101560002046BDE8FC8142484068C0B2801C414929
:10157000B1FBF0F001900020FFF72EFF00F00070AB
:1015800010B10E242046ECE73B480068022801D148
:101590006D0A760A3848006838B137480068012873
:1015A00003D03548006802282DD13448056020203A
:1015B00032494860402088600020C8604FF4806055
:1015C00008610846FFF746FF2020FFF78DF8044624
:1015D0002A2C01D02046C4E728480660212027494C
:1015E0004860402088600020C8604FF48060086137
:1015F0000846FFF72FFF2120FFF776F804462A2C34
:1016000001D02046ADE700201C4908602620486034
:10161000402088600020C8604FF480600861084660
:10162000FFF718FF2620FFF75FF804462A2C01D0A9
:10163000204696E7002700E07F1C01988742FBD3F5
:101640006846FFF709FC044603E06846FFF704FC20
:1016500004462A2C07D19DF800000728F5D09DF8F4
:1016600000000628F1D020467BE700009C0C0020FB
:10167000008001404019010010000020D40C00201F
:1016800030B501462A200022AC4B1B7881F84E3041
:10169000AB4B1B88A1F84C30AA4B1B681A0E930960
:1016A0000B70C2F383034B7002F003038B70A54BE6
:1016B0001B68C3F30742CA70A24B1B88C3F30722FF
:1016C0000A71A04B1A784A715B681A0E1301CB801D
:1016D0009C4B5B68C3F30742CB8843EA1213CB8071
:1016E00002F00F030B72974B9B88C3F30722D309B9
:1016F0004B72C2F380138B72C2F34013CB72C2F3EE
:1017000000130B7300234B738C4B1B681BB18B4B6B
:101710001B68012B3CD193071B0D0B61894B1A7978
:101720000B6943EA82030B61864B9B681A0E0B69B7
:1017300043EA92130B61C2F3C2030B7502F0070375
:101740004B75804B9B68C3F3074253098B75C2F3FB
:101750008203CB7593075B0F0B767A4B1B89C3F320
:1017600007220B7E43EAD2130B760B695B1C4B649A
:101770000C7E4B6CA41C0125A5406B434B640C7A7A
:101780000123A3408B64D1E9113463434B6421E00E
:101790006A4B1B68022B1DD16A4B1A7993069B0A70
:1017A0000B61684B9B681A0E0B6943EA02230B61BD
:1017B000644B9B68C3F307420B6913430B61614B96
:1017C0001B89C3F307220B695B1CDB044B644FF4DA
:1017D00000738B64C2F3801301F8193F93065B0E0C
:1017E0004B70584B1A7A4B7843EAD2134B7002F085
:1017F0007F038B70534BDB681A0ED309CB70C2F397
:1018000041130B71C2F382034B7193071B0F8B7152
:101810004C4BDB68C3F307428B7943EA92138B711D
:10182000C2F34013CB7100230B7202F001034B7221
:10183000444B9B89C3F30722D3098B72C2F38013F5
:10184000CB72C2F340130B73C2F300134B73C2F39A
:1018500081038B7302F00303CB733A4B1A7B53085B
:101860000B7401234B74384B1B681A0ECA74193958
:10187000354B1B68C3F307421402CC85324B1B88DF
:10188000C3F30722CB8D1343CB852F4B1A78140655
:101890000C635B681A0E0B6B43EA02440C632A4B21
:1018A0005B68C3F307420B6B43EA02240C63264BCD
:1018B0009B88C3F307220B6B13430B63224B1A79EC
:1018C00034235A54204B9B681A0E35235A541E4B0E
:1018D0009B68C3F3074214068C631B4B1B89C3F33D
:1018E00007228B6B43EA02448C63174B1A7A8B6B8B
:1018F00043EA02248C63144BDB681A0E8B6B134390
:101900008B63114BDB68C3F307423C235B5C43EA08
:1019100012143C235C5413071C0DCC870A4B9B8983
:10192000C3F30722CB8F1343CB87074B1A7B540893
:1019300040235C54012441235C5430BD100000203E
:10194000140000209C0C0020AC0C002010B52A24B0
:10195000FFF7CCF901218802FFF7B6FB0121022035
:10196000FFF7B2FBFFF700FD00F0BCF804462A2C9D
:1019700001D0204610BD00F015F804462A2C01D0F5
:101980002046F7E7012006490875002008604860F6
:101990008860C86008610846FFF73EFD2046E9E719
:1019A000BC0C002038B52A2401200090FFF70CFD64
:1019B00010B92524204638BD45480068042829D0A0
:1019C00000204449086002204860C0208860002050
:1019D000C8604FF4806008610846FFF73BFDFEF7E2
:1019E0001DFF04462A2C01D02046E4E70020FFF723
:1019F000F3FC394908600420FFF7EEFC36494860E3
:101A00000820FFF7E9FC344988600C20FFF7E4FC6C
:101A10003149C8602E48006858B12D480068012837
:101A200007D02B480068062803D029480068022800
:101A300017D10020274908600320486040208860B3
:101A40000020C8604FF4806008610846FFF702FD7F
:101A500069460320FEF724FF04462A2C01D02046C5
:101A6000A9E71B48006804282FD0BDF800001B49D7
:101A70000860BDF8000000041649086009204860AD
:101A8000C02088600020C8604FF48060086108466C
:101A9000FFF7E0FCFEF7C2FE04462A2C01D02046E8
:101AA00089E70020FFF798FC0D4908600420FFF744
:101AB00093FC0B4948600820FFF78EFC08498860BA
:101AC0000C20FFF789FC0649C8602A24204672E7EB
:101AD00010000020D40C0020AC0C002014000020CA
:101AE0009C0C00202DE9F0412A2400260025002727
:101AF0004FF00008B2205B4908750020086048607C
:101B00008860C86008610846FFF786FC0320FFF77D
:101B1000B7FC0120FFF704FC00205349086048602F
:101B20008860C8604FF4806008610846FFF792FC47
:101B3000FEF7C4FD04462A2C02D02046BDE8F08101
:101B40004FF4D570484908600820486040208860FC
:101B50000020C8604FF4806008610846FFF77AFCF7
:101B6000FEF7ECFE04462A2C05D101203F4908600F
:101B70004FF0804812E000203B4908603720486061
:101B8000402088600020C8604FF4806008610846EB
:101B9000FFF760FC3720FEF7A7FD0446002032491E
:101BA000086037204860402088600020C8604FF4FB
:101BB000806008610846FFF74DFC3720FEF794FD72
:101BC00004462A2C4CD138E00020274908603720F1
:101BD0004860402088600020C8604FF48060086141
:101BE0000846FFF737FC3720FEF77EFD04462A2C17
:101BF00001D02046A2E71E4848EA00001A490860C2
:101C000029204860402088600020C8604FF4806030
:101C100008610846FFF71EFCFEF726FE04462A2C44
:101C200001D020468AE70020FFF7D6FB06460120B8
:101C300080EAD67080F001076D1C1FB94FF6FF7067
:101C40008542C1D34FF6FF70854202D31B24204644
:101C500074E706F08040061E02D0022003490860A7
:101C600020466BE7BC0C0020D40C002010000020A4
:101C70000000108070B50024002588480068012805
:101C800067D1C003FFF794FBA8B100BF06E0FFF7E0
:101C9000DBFB8349096841F82400641C082CF6D357
:101CA0007F48006820307E4908607E480068203008
:101CB0007C4908604DE04FF48040FFF779FB002835
:101CC00047D07948006877490968401A20282BD204
:101CD0007548007873490968401A00F0030030B96C
:101CE000714800686F490968401A800806E06E482C
:101CF00000686C490968401A8008401C05460024A9
:101D00000FE06A4909680868FFF7C8FB641C674868
:101D10000068001D6549086062480068001D61494F
:101D20000860AC42EDD314E0002406E05F49096886
:101D300051F82400FFF7B2FB641C082CF6D35B4873
:101D400000682030594908605648006820305549DD
:101D500008604FF48070FFF72BFBD8B34F48006842
:101D6000D0B10EE0FFF770FB4D49096808604C48A0
:101D70000068001D4A4908604A480068001D49493A
:101D800008604FF40010FFF707FB28B145480068D2
:101D9000454909688842E5D345480068012804D1CF
:101DA00000F068FB4349087002E02A2041490870AE
:101DB0004FF48070FFF7AEFA00214CF23A30FFF793
:101DC0001BFB01203C490860002036490860394867
:101DD000007870BDFFE70220FFF7EAFA70B1022039
:101DE000FFF798FA00214CF23A30FFF705FB00208C
:101DF0002C49086002202F490870EAE70820FFF705
:101E0000D7FA70B10820FFF785FA00214CF23A307A
:101E1000FFF7F2FA002023490860042025490870E2
:101E2000D7E72020FFF7C4FA70B12020FFF772FA3D
:101E300000214CF23A30FFF7DFFA00201949086020
:101E400006201C490870C4E71020FFF7B1FA70B1F2
:101E50001020FFF75FFA00214CF23A30FFF7CCFA7E
:101E6000002010490860052012490870B1E74FF4BE
:101E70000070FFF79DFA78B14FF40070FFF74AFA4F
:101E800000214CF23A30FFF7B7FA0020054908600C
:101E90000720084908709CE72A209AE718000020CC
:101EA00028000020340000201C0000202400002016
:101EB000200000202C000020300000202DE9F047F9
:101EC00007460D4614464FF02A084FF000092E46EB
:101ED0004FF0000A25B94FF026084046BDE8F087CC
:101EE0002A208449087000208349086083490860DB
:101EF000834884490860002048608860C8600861A1
:101F000048610846FFF718FA0020FFF70FFA002093
:101F1000FFF762FA00F0007018B14FF00E0840466B
:101F2000DCE779480068022801D104027F0A002C0E
:101F300021DDB4F5006F1EDC601E2040D8B92046BC
:101F400001F089F882467148046010206F494860AA
:101F5000402088600020C8604FF480600861084617
:101F6000FFF778FA1020FEF7BFFB8046B8F12A0F82
:101F700005D04046B2E74FF026084046AEE760483D
:101F800060490860084644604FEA0A1088600220F1
:101F9000C86000200861012048610846FFF7CCF9BD
:101FA0005648046000205A4908605A48056057485E
:101FB0000760112055494860402088600020C860B3
:101FC0004FF4806008610846FFF744FA1120FEF7DD
:101FD0008BFB8046B8F12A0F01D040467EE74E4881
:101FE0000068022857D111E04FF40040FFF7D4F900
:101FF00060B14FF0000905E0FFF726FA46F8290026
:1020000009F10109B9F1080FF6D320364348406BB6
:1020100040F22A6108400028E6D00820FFF7BCF90A
:1020200030B10820FFF770F94FF00408404655E73B
:102030000220FFF7B1F930B10220FFF765F94FF048
:10204000020840464AE72020FFF7A6F930B12020D9
:10205000FFF75AF94FF0060840463FE74FF400708B
:10206000FFF79AF938B14FF40070FFF74DF94FF0D0
:102070000708404632E703E0FFF7E6F93060361D17
:102080004FF40010FFF788F90028F5D140F2FF5017
:10209000FFF73AF92CE020480068012813D101210C
:1020A00048F22A30FFF7A8F900BF1348006818B9B2
:1020B000104800782A28F8D00E4800782A2817D02F
:1020C0000C4800780AE71448006888B9012140F2FA
:1020D0002A30FFF791F90120FFF728F92146284619
:1020E000FEF7ACFC00BF0E48FEF774FC0028FAD0E7
:1020F0004046F3E62C000020300000201C000020A9
:10210000FFFF0F00E80C002010000020D40C00207E
:10211000200000202800002018000020008001403E
:10212000002000102DE9F05F81460E4614461D4642
:102130004FF02A084FF0000A37464FF0000B26B93F
:102140004FF026084046BDE8F09F2A20A9490870B4
:102150000020A9490860A9490860A948A949086060
:10216000002048608860C860086148610846FFF741
:10217000E3F80020FFF7DAF80020FFF72DF900F070
:10218000007018B14FF00E084046DCE79E4800682A
:10219000022802D104024FEA5929002C21DDB4F5AE
:1021A000006F1EDC601E2040D8B9204600F053FFAF
:1021B0008346964804601020944948604020886017
:1021C0000020C8604FF4806008610846FFF742F9BC
:1021D0001020FEF789FA8046B8F12A0F05D0404654
:1021E000B1E74FF026084046ADE7012D70D905FB59
:1021F00004F0B0F1007F03D34FF026084046A2E779
:1022000005FB04F07D490860012081490860814890
:1022100006607B487B49086005FB04F048604FEA94
:102220000B1088600220C86000200861012048610E
:102230000846FFF781F87548C0F8009012207349EE
:102240004860402088600020C8604FF480600861CA
:102250000846FFF7FFF81220FEF746FA8046B8F16D
:102260002A0F01D040466EE76B48006802287BD1F8
:1022700011E04FF40040FFF78FF860B14FF0000A13
:1022800005E0FFF7E1F847F82A000AF1010ABAF180
:10229000080FF6D320376148406B40F22A310840DE
:1022A0000028E6D00820FFF777F830B10820FFF7C4
:1022B0002BF84FF00408404645E70220FFF76CF882
:1022C00038B10220FFF720F84FF0020840463AE705
:1022D0008DE02020FFF760F830B12020FFF714F8E0
:1022E0004FF0060840462EE74FF40070FFF754F811
:1022F00038B14FF40070FFF707F84FF00708404679
:1023000021E703E0FFF7A0F838603F1D4FF400100D
:10231000FFF742F80028F5D14FF48070FFF73CF842
:1023200018B33948006838B137480068022803D02C
:1023300035480068012818D10020344908600C2075
:102340004860402088600020C8604FF480600861C9
:102350000846FFF77FF80C20FEF7C6F98046B8F173
:102360002A0F02D04046EEE604E040F2FF50FEF7AE
:10237000CBFF3CE028480068012813D1012148F236
:102380002A30FFF739F800BF1B48006818B9194810
:1023900000782A28F8D0174800782A2827D015482E
:1023A0000078D0E61C48006808BB012140F22A30C2
:1023B000FFF722F80120FEF7B9FF05FB04F13046D4
:1023C000FEF73CFB00BF1648FEF704FB0028FAD0DE
:1023D00000BF0948006818B9064800782A28F8D0D4
:1023E000044800782A2802D002480078ABE640462C
:1023F000A9E600002C000020300000201C00002076
:10240000FFFF0F00E80C002010000020D40C00207B
:10241000200000202800002018000020008001403B
:102420000020001070B504462A250A4804600720E1
:1024300008494860402088600020C8604FF48060F0
:1024400008610846FFF706F80720FEF74DF9054634
:10245000284670BDD40C002001462A2019B101295C
:1024600001D0022902D1024A116000E02620704703
:102470001800002010B52A2400200A4908600C200A
:102480004860402088600020C8604FF48060086188
:102490000846FEF7DFFF0C20FEF726F9044620462B
:1024A00010BD0000D40C00202DE9FF5F82460F46CE
:1024B00014462A25002003900290834600260190AE
:1024C00080460090B94627B92625284604B0BDE8C5
:1024D000F09F2A20C64908700020C6490860C649F6
:1024E0000860C648C6490860002048608860C86027
:1024F000086148610846FEF71FFF0020FEF716FF3F
:102500000020FEF769FF00F0007010B10E2528468C
:10251000DCE7BC480068022802D104024FEA5A2ACC
:10252000002C20DDB4F5006F1DDC601E2040D0B90A
:10253000204600F090FD0390B34804601020B2499B
:102540004860402088600020C8604FF480600861C7
:102550000846FEF77FFF1020FEF7C6F805462A2D35
:1025600004D02846B2E726252846AFE7A7480088CA
:102570000004A54908600D204860402088600020C4
:10258000C8604FF4806008610846FEF763FF0D20C5
:10259000FEF7AAF805462A2D01D0284696E7002026
:1025A000FEF71AFF0190DFF854B21EE0ABF1010B09
:1025B000964800880004944908600D204860402037
:1025C00088600020C8604FF4806008610846FEF70C
:1025D00041FF0D20FEF788F805462A2D01D0284638
:1025E00074E70020FEF7F8FE0190019800F4807077
:1025F00010B9BBF1000FD9D1BBF1000F01D12920D7
:1026000064E78148C0F800A018207F494860402056
:1026100088600020C8604FF4806008610846FEF7BB
:1026200019FF1820FEF760F805462A2D01D028462C
:102630004CE77148046000207549086075480760E0
:102640006E486F490860084644600398000188603E
:102650000020C8600861012048610846FEF76CFE52
:102660006D48006802286BD139E04FF48040FEF7D6
:1026700093FEA0B360480068801B202820D25E48EB
:102680000078801B00F0030020B95B480068801BC5
:10269000800804E058480068801B8008401C0090B7
:1026A0004FF0000808E0D9F80000FEF7F7FE08F147
:1026B000010809F10409361D009880450FD2F2E7A0
:1026C0004FF0000805E059F82800FEF7E7FE08F192
:1026D0000108B8F1080FF6D309F1200920364F4858
:1026E000406B40F21A6108400028BED00820FEF777
:1026F00053FE28B10820FEF707FE04252846E5E62C
:102700000220FEF749FE28B10220FEF7FDFD02255A
:102710002846DBE61020FEF73FFE28B11020FEF72A
:10272000F3FD05252846D1E64FF40070FEF734FE90
:10273000F0B34FF40070FEF7E7FD07252846C5E625
:1027400035480068012813D1012144F21A30FEF700
:1027500053FE00BF2748006818B9254800782A288A
:10276000F8D0234800782A2828D021480078ADE600
:1027700029480068E0B9012140F21A30FEF73CFE1A
:1027800021463846FEF78CF90120FEF7CFFD00BF49
:102790002348FEF71FF90028FAD000BF154800684B
:1027A00018B9134800782A28F8D01148007800E0BA
:1027B00004E02A2802D00E48007887E640F2FF5055
:1027C000FEF7A2FD02A8FEF747FB054603E002A8BC
:1027D000FEF742FB05462A2D07D19DF80800072881
:1027E000F5D09DF808000628F1D028466EE60000D6
:1027F0002C000020300000201C000020FFFF0F00F4
:10280000E80C002010000020D40C00201400002050
:10281000200000202400002018000020008001403B
:10282000002000102DE9FE4F8346884614461E46C0
:102830002A25002002900190002781460090C24680
:10284000B8F1000F03D126252846BDE8FE8F2A20C7
:10285000E64908700020E6490860E6490860E64855
:10286000E6490860002048608860C86008614861E7
:102870000846FEF761FD0020FEF758FD0020FEF738
:10288000ABFD00F0007010B10E252846DDE7DC48F6
:102890000068022802D104024FEA5B2B002C20DDE5
:1028A000B4F5006F1DDC601E2040D0B9204600F05A
:1028B000D2FB0290D34804601020D24948604020E7
:1028C00088600020C8604FF4806008610846FEF709
:1028D000C1FD1020FDF708FF05462A2D04D028462B
:1028E000B3E726252846B0E7C74800880004C54955
:1028F00008600D204860402088600020C8604FF4C8
:10290000806008610846FEF7A5FD0D20FDF7ECFE8E
:1029100005462A2D01D0284697E7012E7AD906FBD5
:1029200004F0B0F1007F02D3262528468DE7B44895
:10293000006838B1B2480068012803D0B048006888
:1029400002282FD1B04800880004AE490860372023
:102950004860402088600020C8604FF480600861B3
:102960000846FEF777FD3720FDF7BEFE05462A2D07
:1029700001D0284669E7A34806601720A1494860AE
:10298000402088600020C8604FF4806008610846DD
:10299000FEF760FD1720FDF7A7FE05462A2D01D0A2
:1029A000284652E79748C0F800B01920954948607A
:1029B000402088600020C8604FF4806008610846AD
:1029C000FEF748FD1920FDF78FFE05462A2D01D0A0
:1029D00028463AE706FB04F08649086001208B4947
:1029E00008608B48C0F8008083488449086006FB73
:1029F00004F048600298000188600020C860086107
:102A0000012048610846FEF797FC824800680228CA
:102A10007ED13AE0D1E04FF48040FEF7BDFCA0B398
:102A200074480068C01B20280FD34FF0000905E050
:102A30005AF82900FEF732FD09F10109B9F1080F32
:102A4000F6D30AF1200A20371FE06A480078C01B3D
:102A500000F0030020B967480068C01B800804E04C
:102A600064480068C01B8008401C00904FF00009BB
:102A700008E0DAF80000FEF711FD09F101090AF19A
:102A8000040A3F1D00988145F3D36348406B40F230
:102A90001A3108400028BED00820FEF77DFC28B17E
:102AA0000820FEF731FC04252846CEE60220FEF77A
:102AB00073FC28B10220FEF727FC02252846C4E655
:102AC0001020FEF769FC28B11020FEF71DFC05253B
:102AD0002846BAE64FF40070FEF75EFC30B14FF4C2
:102AE0000070FEF711FC07252846AEE64FF4807013
:102AF000FEF752FC002860D04148006838B14048D9
:102B00000068012803D03E480068022855D100E043
:102B100016E000203B4908600C2048604020886097
:102B20000020C8604FF4806008610846FEF792FC00
:102B30000C20FDF7D9FD05462A2D3ED0284684E617
:102B400034480068012813D1012144F21A30FEF7FD
:102B500053FC00BF2648006818B9244800782A288A
:102B6000F8D0224800782A2827D0204800786CE640
:102B70002848006808BB012140F21A30FEF73CFCEF
:102B80000120FEF7D3FB06FB04F14046FDF788FF6A
:102B900000BF2248FDF71EFF0028FAD000BF1448EE
:102BA000006818B9114800782A28F8D00F48007832
:102BB0002A2802D00D48007847E640F2FF50FEF781
:102BC000A3FB01A8FEF748F9054603E001A8FEF7BC
:102BD00043F905462A2D07D19DF804000728F5D0B2
:102BE0009DF804000628F1D028462EE62C0000208F
:102BF000300000201C000020FFFF0F00E80C002028
:102C000010000020D40C0020140000202000002020
:102C10002400002018000020008001400020001047
:102C2000704770477047704710B500F001F810BD4D
:102C30000CB50020019000903348006840F48030CB
:102C40003149086000BF3048006800F4003000904F
:102C50000198401C0190009818B90198B0F5A06F38
:102C6000F1D12948006800F4003010B10120009033
:102C700001E0002000900098012843D1234800681B
:102C800040F01000214908600846006820F0030069
:102C900008600846006840F0020008601A48406872
:102CA000194948600846406848600846406840F452
:102CB000806048600846406820F47C104860084600
:102CC000406840F4E81048600846006840F08070B2
:102CD000086000BF0C48006800F000700028F9D0C0
:102CE0000948406820F003000749486008464068EA
:102CF00040F00200486000BF0348406800F00C004C
:102D00000828F9D10CBD000000100240002002404C
:102D10007047000010B51348006840F001001149E9
:102D2000086008464068104908400E494860084657
:102D300000680E4908400B4908600846006820F406
:102D4000802008600846406820F4FE0048604FF488
:102D50001F008860FFF768FF4FF0006004490860BB
:102D600010BD0000001002400000FFF8FFFFF6FE5B
:102D700008ED00E070477047704770477047704734
:102D8000704770477047704770477047704770478B
:102D9000704770477047000010B540F225510A484F
:102DA00000F085F870B1084800F03CF9C4B2214643
:102DB000054800F03CF9592C01D0792C02D10120B2
:102DC0000249086010BD00000038014000000020EA
:102DD0007047704701F40072B2F5007F00D100BF68
:102DE000CA430280704721B1828942F40052828135
:102DF00004E082894DF6FF731A408281704700001B
:102E000000B585B0012144F20400FEF76DF94FF4DE
:102E10000070ADF8100018208DF8130003208DF815
:102E2000120004A91948FDF781FF4FF48060ADF846
:102E3000100004208DF8130003208DF8120004A95F
:102E40001248FDF773FF4FF4E13000900020ADF819
:102E50000400ADF80600ADF80800ADF80C000C2039
:102E6000ADF80A0069460A4800F070F840210848A9
:102E7000FFF7B0FF012240F22551054800F041F86C
:102E800001210348FFF7AFFF05B000BD0008014076
:102E90000038014002460020B1F5007F00D100BF9C
:102EA00013880B400BB1012000E00020704770B583
:102EB0000246002400230025002040F66A16B14295
:102EC00000D100BFC1F3421501F01F03012606FA2D
:102ED00003F3012D02D19689334006E0022D02D181
:102EE000168A334001E0968A33400C12012606FA16
:102EF00004F41688344013B10CB1012000E0002026
:102F000070BDF0B50346002400260025002040F6E1
:102F10006A17B94200D100BF1846C1F3421401F04C
:102F20001F06012707FA06F5012C01D10C3004E039
:102F3000022C01D1103000E014301AB107682F4381
:102F4000076002E00768AF430760F0BD2DE9F04776
:102F500086B005460E460024A24600BFA1460027C3
:102F6000B08900B100BF2F462C8A4CF6FF70044098
:102F7000F08804432C82AC894EF6F3100440B088EC
:102F800031890843718908430443AC81AC8A4FF608
:102F9000FF400440B0890443AC8201A8FEF7B4F8B6
:102FA0001F48874202D1DDF810A001E0DDF80CA037
:102FB000A88900F4004040B10AEBCA0000EB0A10F7
:102FC00031684900B0FBF1F807E00AEBCA0000EBFA
:102FD0000A1031688900B0FBF1F86420B8FBF0F00A
:102FE00004012009642101FB1089A88900F4004034
:102FF00040B1322000EBC900B0FBF1F000F0070057
:10300000044308E0322000EB09106421B0FBF1F02A
:1030100000F00F0004432C8106B0BDE8F0870000EB
:103020000038014001468888C0F308007047C1F3AA
:1030300008028280704770477047704700BFFEE704
:10304000704730380A2801D20120704700207047AD
:10305000014600BF70470146002002E04910421CB3
:10306000D0B20129FAD1704770B504460D46E1B2DD
:103070000548FFF7DCFF00BF40210348FFF70AFFC8
:103080000028F9D0204670BD0038014008B5FDF792
:1030900017FEFFF7B5FE01214020FEF725F80420BA
:1030A000ADF8000003208DF8020048208DF80300E1
:1030B0006946B448FDF73AFEFDF79FFFB248FDF7B9
:1030C000AFF800BFB14800680028FBD0FEF73EFC17
:1030D000AF49087008460178AEA0FDF7A1F8AC48EA
:1030E00000782A280CD1B5A0FDF79AF8BF48FEF762
:1030F000C7FAA749087008460178BDA0FDF790F807
:10310000A34800782A2813D1B84890F84E20816C43
:10311000C148FDF785F8B549B1F84C100804FFF730
:1031200081F99B49087008460178BCA0FDF778F842
:10313000974800782A280DD1C2A0FDF771F84FF406
:103140000060FEF7B1F99249087008460178C8A0FE
:10315000FDF766F88E4800782A280ED1D0A0FDF73A
:103160005FF84FF400710020FEF7EAF98849087013
:1031700008460178D8A0FDF753F8854800782A283A
:103180000DD10021DC48FDF74BF80020FFF764F972
:103190007F49087008460178D8A0FDF741F87C48BF
:1031A00000782A2815D1DFA0FDF73AF8FE224FF467
:1031B0008061E848FDF76CF902231A02E549002016
:1031C000FEF7B0FF7249087008460178E2A0FDF7EB
:1031D00027F86F4800782A2812D10021E948FDF726
:1031E0001FF8002407E0DB4850F824202146E6A021
:1031F000FDF716F8641CFF2CF5D9D4A0FDF710F8E4
:1032000088224FF40071E448FDF742F960480078E5
:103210002A280CD14FF40072DF490020FFF744F94F
:103220005B49087008460178DCA0FCF7F9FF5848B4
:1032300000782A2810D10021E148FCF7F1FF4FF473
:103240000072E0490020FEF739FE51490870084637
:103250000178DDA0FCF7E4FF4D4800782A2812D160
:103260000021E248FCF7DCFF002407E0D54850F8D5
:1032700024202146C4A0FCF7D3FF641C802CF5D386
:10328000B2A0FCF7CDFF66224FF48061D848FDF76D
:10329000FFF83F4800782A280CD102231A02D449AB
:1032A0005000FFF7BFFA3A49087008460178D1A0EC
:1032B000FCF7B6FF364800782A2810D10221D848FA
:1032C000FCF7AEFF02231A02A2495000FEF72AFFC4
:1032D0002F49087008460178D2A0FCF7A1FF2C48BE
:1032E00000782A2812D10221D948FCF799FF00243E
:1032F00007E0984850F824202146A3A0FCF790FF4F
:10330000641CFF2CF5D991A0FCF78AFF39E04FF43B
:103310008051D048FDF797FD4FF40051CD48FDF79F
:1033200092FD4FF48041CB48FDF78DFD4FF40041F5
:10333000C848FDF788FDC848FDF7E5FBC648FDF71E
:10334000E2FBC648FDF7DFFB4FF48051C148FDF7B3
:1033500078FD4FF40051BF48FDF773FD4FF48041F5
:10336000BC48FDF76EFD4FF40041BA48FDF769FD1A
:10337000B948FDF7C8FBB848FDF7C5FBB748FDF7EE
:10338000C2FBC4E700180140D83800080000002044
:1033900007000020202020200D0A0D0A30312E20A9
:1033A0002D2D2D2D2D2053445F496E6974205374AB
:1033B000617475733A25640D0A00000020202020F6
:1033C000202020202020496E697469616C697A652B
:1033D0002053442063617264207375636365737363
:1033E00066756C6C79210D0A0D0A00004C000020F6
:1033F00030322E202D2D2D2D2D2053445F47657406
:1034000043617264496E666F205374617475733AD8
:1034100025640D0A000000009037000830332E208C
:103420002D2D2D2D2D2053445F53656C6563744401
:103430006573656C656374205374617475733A25A4
:10344000640D0A0020202020202020202020536509
:103450006C656374205344206361726420737563E8
:103460006365737366756C6C79210D0A0D0A000033
:1034700030342E202D2D2D2D2D2053445F456E618F
:10348000626C65576964654275734F7065726174EB
:10349000696F6E205374617475733A25640D0A0068
:1034A00020202020202020202020456E61626C6595
:1034B000207769646520627573206F70657261742E
:1034C000696F6E207375636365737366756C6C7971
:1034D000210D0A0D0A00000030352E202D2D2D2D36
:1034E0002D2053445F457261736520537461747578
:1034F000733A25640D0A00009C36000830362E20F1
:103500002D2D2D2D2D2053445F5365744465766910
:1035100063654D6F6465205374617475733A2564F7
:103520000D0A00002020202020202020202053658C
:10353000742053442063617264206D6F646520734E
:1035400075636365737366756C6C79210D0A0D0A7A
:10355000000000009C08002030372E202D2D2D2D3E
:103560002D2053445F526561644D756C7469426CE3
:103570006F636B73205374617475733A25640D0A1D
:103580000000000030380008253032783A307825C5
:1035900030387820000000009C00002030382E20B9
:1035A0002D2D2D2D2D2053445F5772697465426C6B
:1035B0006F636B205374617475733A25640D0A0050
:1035C000443700089C02002030392E202D2D2D2D4F
:1035D0002D2053445F52656164426C6F636B2053CE
:1035E00074617475733A25640D0A0000EC370008A5
:1035F0009C04002031302E202D2D2D2D2D205344C4
:103600005F57726974654D756C7469426C6F636B5A
:1036100073205374617475733A25640D0A000000B9
:10362000E836000831312E202D2D2D2D2D2053442C
:103630005F526561644D756C7469426C6F636B7346
:10364000205374617475733A25640D0A00000000FC
:1036500084380008000C0140FFFF0F00FFFF050049
:1036600030313233343536373839414243444546B8
:1036700040305800303132333435363738396162B2
:1036800063646566403078000400000800000000B4
:103690000000000200010000100000002020202097
:1036A000202020202020457261736520626C6F63AA
:1036B0006B202564207375636365737366756C6C2A
:1036C00079210D0A20202020202020202020416C5C
:1036D0006C2074686520646174612069732030789F
:1036E00030300D0A0D0A000020202020202020204C
:1036F00020205772697465203220626C6F636B738F
:103700002066726F6D20626C6F636B20256420737E
:1037100075636365737366756C6C79210D0A20207F
:103720002020202020202020416C6C2074686520FF
:103730006461746120697320307836360D0A0D0A91
:103740000000000020202020202020202020577270
:1037500069746520626C6F636B20256420737563E8
:103760006365737366756C6C79210D0A20202020C7
:10377000202020202020416C6C207468652064612A
:10378000746120697320307838380D0A0D0A000002
:103790002020202020202020202047657420534412
:1037A000206361726420696E666F6D6174696F6E0B
:1037B000207375636365737366756C6C79210D0A8C
:1037C00020202020202020202020426C6F636B20AE
:1037D00073697A653A25782C204361726420747984
:1037E00070653A25780D0A0D0A000000202020207F
:1037F0002020202020205265616420626C6F636B62
:10380000202564207375636365737366756C6C79CA
:10381000210D0A20202020202020202020416C6C17
:103820002074686520646174612069733A0D0A0030
:10383000202020202020202020205265616420327A
:1038400020626C6F636B732066726F6D20626C6FA9
:10385000636B2025642073756365737366756C6C88
:1038600079210D0A20202020202020202020416CBA
:103870006C2074686520646174612069733A0D0A74
:103880000000000020202020202020202020526541
:103890006164203220626C6F636B732066726F6D9F
:1038A00020626C6F636B202564207375636365739E
:1038B0007366756C6C790D0A202020202020202052
:1038C0002020416C6C2074686520646174612069FB
:1038D000733A0D0A00000000202020200D0A0D0A76
:1038E000205741524E494E473A20544849532050A0
:1038F000524F434553532057494C4C204552415356
:1039000045205448452053442043415244210D0A48
:103910002050726573732027792720746F20636F9E
:103920006E74696E75652E0048390008000000202D
:103930004C0000006C010008943900084C00002085
:103940001413000088010008000000000000002A95
:103950000000000000000000000000000000000067
:103960000200000000000000000000000000000055
:10397000000000002A00000000000000000000001D
:103980000000000001020304010203040607080905
:04399000020406081F
:0400000508000131BD
:00000001FF
