:020000040800F2
:10000000F80A002065010008C50F000883040008F5
:10001000C10F0008B102000805160008000000002A
:100020000000000000000000000000005D12000859
:10003000B502000800000000C70F00088113000887
:100040007F0100087F0100087F0100087F01000890
:100050007F0100087F0100087F0100087F01000880
:100060007F0100087F0100087F0100087F01000870
:100070007F0100087F0100087F0100087F01000860
:100080007F0100087F0100087F0100087F01000850
:100090007F0100087F0100087F0100087F01000840
:1000A0007F0100087F0100087F0100087F01000830
:1000B0007F0100087F0100087F0100087F01000820
:1000C0007F0100087F0100087F0100087F01000810
:1000D0007F0100087F0100087F0100087F01000800
:1000E0007F0100087F0100087F0100080000000078
:1000F0000000000000000000000000000000000000
:1001000000000000000000007F0100087F010008DF
:100110007F0100087F0100087F0100087F010008BF
:100120007F0100087F0100087F0100087F010008AF
:100130007F0100087F0100087F0100087F0100089F
:100140007F0100087F0100087F0100087F0100088F
:10015000DFF80CD000F050F800480047852F000869
:10016000F80A00200648804706480047FEE7FEE7F9
:10017000FEE7FEE7FEE7FEE7FEE7FEE7FEE7FEE757
:100180008513000851010008421C10F8011B0029CA
:10019000FBD1801A70472DE9F05F0546002092469A
:1001A0009B4688460646814640241BE02846414639
:1001B0004746224600F041F853465A46C01A91413C
:1001C00010D311461846224600F028F82D1A67EB86
:1001D00001084F4622460120002100F01FF817EBCE
:1001E00000094E41201EA4F10104DFDC48463146DF
:1001F0002A464346BDE8F09F064C074D06E0E068FE
:1002000040F0010394E8070098471034AC42F6D35D
:10021000FFF7A2FFEC3400080C350008202A04DBAD
:10022000203A00FA02F1002070479140C2F1200309
:1002300020FA03F3194390407047202A04DB203A48
:1002400021FA02F00021704721FA02F3D040C2F1F6
:100250002002914008431946704770B58C1810F879
:10026000015B15F0070301D110F8013B2A1106D1FB
:1002700010F8012B03E010F8016B01F8016B5B1E15
:10028000F9D12B0705D40023521E0DD401F8013BF0
:10029000FAE710F8013BCB1A921C03E013F8015B5C
:1002A00001F8015B521EF9D5A142D8D3002070BDE0
:1002B00000BFFEE7704700E0401E0028FCD17047F9
:1002C0002DE9F041024600250026002000230024ED
:1002D000002791F803C00CF00F0591F803C00CF053
:1002E000100CBCF1000F03D091F802C04CEA0505D8
:1002F00091F800C0BCF1000F31D0146800202BE051
:100300004FF0010C0CFA00F3B1F800C00CEA030640
:100310009E4220D183004FF00F0C0CFA03F7BC4330
:1003200005FA03FC4CEA040491F803C0BCF1280F61
:1003300006D14FF0010C0CFA00FCC2F814C00AE020
:1003400091F803C0BCF1480F05D14FF0010C0CFA35
:1003500000FCC2F810C0401C0828D1D31460B1F8CA
:1003600000C0BCF1FF0F34DD546800202EE000F126
:10037000080C4FF0010808FA0CF3B1F800C00CEAC1
:1003800003069E4221D183004FF00F0C0CFA03F7B5
:10039000BC4305FA03FC4CEA040491F803C0BCF129
:1003A000280F05D100F1080C08FA0CF8C2F81480E7
:1003B00091F803C0BCF1480F07D100F1080C4FF0D1
:1003C000010808FA0CF8C2F81080401C0828CED3A7
:1003D0005460BDE8F0810000F0B50A460023002417
:1003E0000021002500F00046B6F1004F02D11D4E5D
:1003F000F16901E01B4E7168C0F3034583B200F45C
:100400004016B6F5401F08D121F07061154E766890
:1004100026F07066134F7E6012E000F48016B6F589
:10042000801F06D1032606FA05F4A14341F070614E
:1004300006E0460D360103FA06F6B14341F070615D
:1004400022B1460D360103FA06F6314300F00046AC
:10045000B6F1004F02D1034EF16101E0014E71602F
:10046000F0BD0000000001400246002093680B40F0
:100470000BB1012000E0002070474161704701612D
:10048000704700BFFEE730B589B00446FF22002167
:10049000092001F061FBC5B215B1284609B030BD95
:1004A0000122102105A801F015FB08B10120F5E794
:1004B000FF2200210A2001F04FFBC5B20DB12846F2
:1004C000ECE70122102101A801F004FB08B1022091
:1004D000E4E79DF81400800920709DF81400C0F333
:1004E000830060709DF8140000F00300A0709DF878
:1004F0001500E0709DF8160020719DF817006071DE
:100500009DF818000001E080E0889DF8191040EA8D
:100510001110E0809DF8190000F00F0020729DF886
:100520001A00C00960729DF81A00C0F38010A07212
:100530009DF81A00C0F34010E0729DF81A00C0F355
:1005400000102073002060739DF81A008007000DD2
:10055000206120699DF81B1040EA8100206120691C
:100560009DF81C1040EA911020619DF81C00C0F31A
:10057000C20020759DF81C0000F0070060759DF812
:100580001D004009A0759DF81D00C0F38200E075B4
:100590009DF81D008007400F2076207E9DF81E10DC
:1005A00040EAD11020769DF81E00C0F384006076EA
:1005B0009DF81E008007C00EA076A07E9DF81F103B
:1005C00040EA5110A0769DF81F0000F01F00E07671
:1005D0009DF82000C00920779DF82000C0F341104D
:1005E00060779DF82000C0F38200A0779DF820007E
:1005F0008007000FE077E07F9DF8211040EA91101E
:10060000E0779DF82100C0F3401084F8200000201E
:1006100084F821009DF8210000F0010084F82200F8
:100620009DF82200C00984F823009DF82200C0F341
:10063000801084F824009DF82200C0F3401084F854
:1006400025009DF82200C0F3001084F826009DF8D4
:100650002200C0F3810084F827009DF8220000F0FA
:10066000030084F828009DF82300400884F829003E
:10067000012084F82A0094F84E00042808D19DF83F
:100680001C000002206120699DF81D1008442061B3
:100690002069C00460644FF40070A0649DF80400F9
:1006A00084F82C009DF805000102E185E08D9DF89D
:1006B00006100843E0859DF8070001062163206BC2
:1006C0009DF8081040EA01412163206B9DF8091054
:1006D00040EA01212163206B9DF80A100843206342
:1006E0009DF80B10342001559DF80C103520015554
:1006F0009DF80D000106A163A06B9DF80E1040EA65
:100700000141A163A06B9DF80F1040EA0121A16394
:10071000A06B9DF810100843A0633C20005D9DF87D
:10072000111040EA11113C2001559DF811000007FD
:10073000010DE187E08F9DF812100843E0879DF8D6
:10074000130041084020015501214120015500209E
:10075000A4E600007CB50020009001900121A8488B
:10076000FFF782FE28B1A7A000F04EFF4FF0FF3048
:100770007CBD002401E0601C84B2FF2CFBDD002462
:1007800004E0FF2001F060FA601C84B20A2CF8DB60
:1007900000240BE095220021084601F0DDF9C5B2E6
:1007A000012D01D1002405E0601C84B240F6FF70E9
:1007B0008442EFDB00BF40F6FF70844204D199A071
:1007C00000F022FF0120D3E787224FF4D5710820E3
:1007D00001F002FAC5B2052D76D101209B4981F8BE
:1007E0004E0010219A48FFF74AFEFF2001F02CFA34
:1007F000002418E000221146372001F0ADF9C5B2FF
:10080000012D05D0294693A000F0FEFE2846AFE753
:1008100000221146292001F09FF9C5B20DB900242C
:1008200005E0601C84B240F6FF708442E2DB00BF4A
:1008300040F6FF70844223D100240AE000221146D2
:10084000012001F089F9C5B20DB9002405E0601C52
:1008500084B240F6FF708442F0DB00BF40F6FF70C8
:10086000844205D1294688A000F0CEFE02207FE711
:100870000020764981F84E008FA000F0C5FE02E00E
:1008800097A000F0C1FE012000F034FA01220021FF
:100890003B2001F061F9C5B22DB129469AA000F0C4
:1008A000B3FE284664E7FF224FF40071102001F0E8
:1008B00053F9C5B2002D7CD0294600E004E09FA08A
:1008C00000F0A2FE284653E7012D72D1FF2001F06F
:1008D000BBF9C0B28DF80000FF2001F0B5F9C0B23D
:1008E0008DF80100FF2001F0AFF9C0B28DF80200D1
:1008F000FF2001F0A9F9C0B28DF80300102154487F
:10090000FFF7BDFDFF2001F09FF99DF802000128CF
:1009100073D19DF80300AA286FD1002419E00022AA
:100920001146372001F018F9C5B2012D05D029462E
:1009300048A000F069FE28461AE700224FF08041E7
:10094000292001F009F9C5B20DB9002405E0601CA9
:1009500084B240F6FF708442E1DB00BF40F6FF70D6
:10096000844205D1294682A000F04EFE0320FFE616
:10097000002211463A2001F02FF9C5B22DB12946C7
:1009800088A000F041FE2846F2E6FF2001F05CF965
:10099000C0B28DF80000FF2001F056F9C0B28DF80A
:1009A0000100FF2001F050F9C0B28DF80200FF20D5
:1009B00000E022E001F048F9C0B28DF803001021F8
:1009C0002348FFF75CFDFF2001F03EF99DF8000091
:1009D00000F0400038B104201C4981F84E007EA090
:1009E00000F012FE06E00220184981F84E0085A0B2
:1009F00000F00AFE012000F07DF90020B8E60000BA
:100A0000000C01405468657265206973206E6F2088
:100A10006361726420646574656374656421200D8C
:100A20000A00000052657365742063617264206976
:100A30006E746F2049444C45207374617465206660
:100A400061696C6564210D0A00000000A0060020A9
:100A50000008014053656E6420434D4435352073D2
:100A6000686F756C642072657475726E20307830B2
:100A7000312C20726573706F6E73653D3078253050
:100A800032780D0A0000000053656E6420434D4427
:100A9000312073686F756C642072657475726E2096
:100AA000307830302C20726573706F6E73653D3016
:100AB00078253032780D0A004361726420547970D1
:100AC00065202020202020202020202020202020E1
:100AD0002020202020203A204D4D430D0A00000008
:100AE00043617264205479706520202020202020EA
:100AF00020202020202020202020202020203A20DC
:100B000053442056310D0A0053656E6420434D4412
:100B100035392073686F756C642072657475726EF8
:100B200020307830302C20726573706F6E73653DA5
:100B30003078253032780D0A0000000053656E646D
:100B400020434D4431362073686F756C64207265A4
:100B50007475726E20307830302C20726573706F2F
:100B60006E73653D3078253032780D0A0000000044
:100B700053656E642041434D4434312073686F7572
:100B80006C642072657475726E20307830302C2061
:100B9000726573706F6E73653D3078253032780DF5
:100BA0000A00000053656E6420434D4435382073BD
:100BB000686F756C642072657475726E2030783061
:100BC000302C20726573706F6E73653D3078253000
:100BD00032780D0A0000000043617264205479707D
:100BE00065202020202020202020202020202020C0
:100BF0002020202020203A20534420563248430D04
:100C00000A0000004361726420547970652020203E
:100C100020202020202020202020202020202020D4
:100C200020203A2053442056320D0A002DE9F0418D
:100C300005460E4617461C4890F84E00042800D082
:100C40006D0200222946122000F086FF00F0FF0806
:100C5000B8F1000F02D00120BDE8F081002413E0BC
:100C600006EB442000224FF4007100F033FF50B136
:100C7000002211460C2000F06FFF10210B48FFF7F7
:100C8000FEFB0220E8E7641CBC42E9D300221146C7
:100C90000C2000F061FF10210448FFF7F0FBFF205B
:100CA00000F0D2FF0020D7E7A00600200008014096
:100CB00070B504460E460E4890F84E00042800D049
:100CC000640200222146112000F046FFC5B20DB19A
:100CD000012070BD01225102304600F0FBFEC5B27A
:100CE000002211460C2000F037FF2846F1E70000F3
:100CF000A006002010B586B004460020ADF8040020
:100D00004FF48270ADF806000020ADF80800022014
:100D1000ADF80A000120ADF80C004002ADF80E005D
:100D20000020ADF812000720ADF814001CB93820DF
:100D3000ADF8100002E02020ADF8100001A9024833
:100D400000F06EFA06B010BD0030014008B5012178
:100D5000080300F039F901210D2000F035F9E020F9
:100D6000ADF8000003208DF8020018208DF8030074
:100D700069461448FFF7A4FA1020ADF800000320DC
:100D80008DF8020010208DF8030069460D48FFF72A
:100D900097FA0120ADF8000003208DF802004820EA
:100DA0008DF8030069460848FFF78AFA10210548C4
:100DB000FFF765FB0020FFF79DFF0121034800F0CE
:100DC00015FA08BD00080140000C01400030014048
:100DD0002DE9F04705460E461746454890F84E0067
:100DE000042800D06D02424890F84E0020B1002245
:100DF0003946172000F0B0FE00222946192000F0E5
:100E0000ABFEC4B214B10120BDE8F087102139480F
:100E1000FFF733FBFF2000F017FFFF2000F014FF67
:100E2000FF2000F011FF4FF000083AE0FC2000F036
:100E30000BFF4FF0000907E016F8010B00F004FF6C
:100E400009F101001FFA80F9B9F5007FF4DBFF20FA
:100E500000F0FAFEFF2000F0F7FEFF2000F0F4FEA5
:100E6000C4B204F01F00052805D010212148FFF767
:100E700006FB0220C8E74FF0000A0BE050460AF1DB
:100E8000010AB0F5802F05D110211A48FFF7F7FAB3
:100E90000320B9E7FF2000F0D7FEFF28EED108F1CC
:100EA0000108B845C2D3FD2000F0CEFEC4B20CB993
:100EB0000420A9E74FF0000A0BE050460AF1010AAE
:100EC000B0F5802F05D110210A48FFF7D8FA052088
:100ED0009AE7FF2000F0B8FEFF28EED11021054868
:100EE000FFF7CDFAFF2000F0AFFE00208CE70000F6
:100EF000A0060020000801402DE9F04104460D46FF
:100F00002D4890F84E00042800D0640200222146AB
:100F1000182000F021FEC6B216B10120BDE8F08114
:100F200010212648FFF7A9FAFF2000F08DFEFF20D0
:100F300000F08AFEFF2000F087FEFE2000F084FE15
:100F4000002705E015F8010B00F07EFE781C87B243
:100F5000B7F5007FF6DBFF2000F076FEFF2000F003
:100F600073FEFF2000F070FEC6B206F01F000528D9
:100F700005D010211148FFF782FA0220CEE74FF08A
:100F800000080BE0404608F10108B0F5802F05D1BC
:100F900010210A48FFF773FA0320BFE7FF2000F093
:100FA00053FE0028EED010210448FFF768FAFF2016
:100FB00000F04AFE0020B1E7A00600200008014032
:100FC00000BFFEE77047704729B1064A92690243A5
:100FD000044B9A6104E0034A92698243014B9A618F
:100FE00070470000001002402DE9F041002100226E
:100FF000002500230026002400278C46DFF86081AE
:10100000D8F8048008F00C0121B1042907D0082980
:1010100059D109E0DFF84C81C0F8008058E0DFF8D2
:101020004881C0F8008053E0DFF83481D8F80480AC
:1010300008F47012DFF82881D8F8048008F48035AD
:10104000920C0D2A01D0921C00E0062235B9DFF87F
:101050001C8102FB08F8C0F8008033E0DFF8008153
:10106000D8F82C8008F48036DFF8F480D8F82C808B
:1010700008F00F0808F1010446B9DFF8EC80B8FB6E
:10108000F4F808FB02F8C0F800801BE0DFF8D0801D
:10109000D8F82C80C8F3031808F10107DFF8C080E6
:1010A000D8F82C80C8F3032808F1020CDFF8B880C8
:1010B000B8FBF7F808FB0CF8B8FBF4F808FB02F8EB
:1010C000C0F8008004E0DFF89C80C0F8008000BF1A
:1010D00000BFDFF88C80D8F8048008F0F00109091F
:1010E000DFF88C8018F80130D0F8008028FA03F877
:1010F000C0F80480DFF86880D8F8048008F4E06164
:10110000090ADFF86C8018F80130D0F8048028FA5A
:1011100003F8C0F80880DFF84880D8F8048008F4A5
:101120006051C90ADFF8488018F80130D0F804800F
:1011300028FA03F8C0F80C80DFF82480D8F804807F
:1011400008F44041890BDFF82C8018F80130D0F802
:101150000C80B8FBF3F8C0F81080BDE8F081000007
:101160000010024000127A0040787D0100093D0025
:1011700032020020420200201CB501AA69460DA0DF
:1011800001F0C1FA0C4908700846007880B901984E
:101190008069801E019B9B785843C10A0198807822
:1011A000009B5843C20A05A000F02EFA01201CBD86
:1011B0000020FCE7303A0000000000200D0A256402
:1011C000204D4220746F74616C20647269766520D2
:1011D00073706163652E0D0A2564204D422061768F
:1011E00061696C61626C652E0D0A000021B1028894
:1011F00042F04002028004E002884FF6BF731A40BA
:10120000028070470246002013890B400BB1012079
:1012100000E000207047014688897047818170474F
:1012200010B50022028802F441520B884C882343F7
:101230008C882343CC8823430C8923434C89234344
:101240008C892343CC8923431A430280838B4FF23A
:10125000FF74234083830B8A038210BD704710B54F
:1012600000F002F810BD00000CB5002001900090C5
:101270003F48006840F480303D49086000BF3C486A
:10128000006800F4003000900198401C0190009824
:1012900018B90198B0F5A06FF1D13548006800F495
:1012A000003010B10120009001E000200090009873
:1012B00001285CD12F48006840F010002D490860DB
:1012C0000846006820F0030008600846006840F007
:1012D0000200086026484068254948600846406882
:1012E00048600846406840F4806048600846C06A2C
:1012F000214908401E49C8620846C06A1F49084380
:101300001B49C8620846006840F08060086000BF62
:101310001748006800F000600028F9D014484068C1
:1013200020F47C10124948600846406840F4E810F8
:1013300048600846006840F08070086000BF0C48B4
:10134000006800F000700028F9D00948406820F0DB
:101350000300074948600846406840F002004860C2
:1013600000BF0348406800F00C000828F9D10CBD0C
:10137000001002400020024000F0FEFF4406010081
:101380007047000010B51648006840F0010014498D
:1013900008600846406813490840114948600846FB
:1013A0000068114908400E4908600846006820F4AA
:1013B000802008600846406820F4FE004860084627
:1013C000006820F0A05008604FF47F008860002083
:1013D000C862FFF744FF4FF000600449086010BD89
:1013E000001002400000FFF0FFFFF6FE08ED00E0F5
:1013F00001F40072B2F5007F00D100BFCA43028041
:10140000704721B1828942F40052828104E08289CE
:101410004DF6FF731A4082817047000000B585B019
:10142000012144F20900FFF7CFFD01210420FEF75E
:10143000D3FF4020ADF8100018208DF813000320D2
:101440008DF8120004A91C48FEF73AFF8020ADF881
:10145000100004208DF8130003208DF8120004A959
:101460001548FEF72DFF4FF4E13000900020ADF855
:101470000400ADF80600ADF80800ADF80C000C2033
:10148000ADF80A0069460D4800F04CF840210B48C1
:10149000FFF7AEFF012240F22551084800F01DF889
:1014A000012240F22771054800F017F80121034896
:1014B000FFF7A7FF05B000BD000C01400038014058
:1014C00002460020B1F5007F00D100BF13880B4019
:1014D0000BB1012000E000207047F0B50346002466
:1014E00000260025002040F66A17B94200D100BF4F
:1014F0001846C1F3421401F01F06012707FA06F54A
:10150000012C01D10C3004E0022C01D1103000E09C
:1015100014301AB107682F43076002E00768AF4331
:101520000760F0BD2DE9F04786B005460E46002461
:10153000A24600BFA1460027B08900B100BF2F46D8
:101540002C8A4CF6FF700440F08804432C82AC894E
:101550004EF6F3100440B08831890843718908437E
:101560000443AC81AC8A4FF6FF400440B089044389
:10157000AC8201A8FFF738FD1F48874202D1DDF891
:1015800010A001E0DDF80CA0A88900F4004040B1F3
:101590000AEBCA0000EB0A1031684900B0FBF1F811
:1015A00007E00AEBCA0000EB0A1031688900B0FBC3
:1015B000F1F86420B8FBF0F004012009642101FB7C
:1015C0001089A88900F4004040B1322000EBC90026
:1015D000B0FBF1F000F00700044308E0322000EB1C
:1015E00009106421B0FBF1F000F00F0004432C81DE
:1015F00006B0BDE8F087000000380140C1F30802E2
:101600008280704700BFFEE70FB4054B10B503A9F9
:10161000044A029800F02CF810BC5DF814FB00009E
:10162000E12D0008480200200FB4084B10B504A9B2
:1016300002AA039800F01CF8044602A9002000F05A
:101640001DFB204610BC5DF814FB00007D1C00084B
:1016500002E008C8121F08C1002AFAD1704770477B
:10166000002001E001C1121F002AFBD170470000D9
:101670002DE9FF4F8DB00F460546002606E02528D0
:101680000BD0DDE90F1290476D1C761C28780028DE
:10169000F5D111B03046BDE8F08F0024A246A14636
:1016A0000122EC4900E0044315F8013F203B02FA17
:1016B00003F00842F7D128782A2810D06FF02F02C3
:1016C0002878A0F13001092914D80AEB8A0102EB2D
:1016D000410144F0020400EB010A6D1CF0E701CF68
:1016E0005FEA000A03D544F40054CAF1000A44F04A
:1016F00002046D1C28782E2817D115F8010F44F02C
:1017000004042A280ED06FF02F022878A0F13001AF
:1017100009290AD809EB890102EB410100EB010913
:101720006D1CF2E757F8049B6D1C28786C280FD0CD
:1017300006DC4C2817D068280DD06A2814D104E0A4
:10174000742810D07A280FD10DE044F400140AE078
:1017500044F4801401E044F440146978814202D1D9
:1017600004F580146D1C6D1C2A786E2A1FD00CDCC9
:10177000632A31D004DC002A8BD0582A11D1A3E08F
:10178000642A68D0692A0CD165E0732A2ED004DC63
:101790006F2A73D0702A04D19BE0752A6FD0782A03
:1017A0006ED01046DDE90F129047761C50E1C4F36D
:1017B0000250022806D0032809D0042801CF09D0FE
:1017C000066045E101CFF117C0E9006140E101CFBA
:1017D00006803DE106703BE117F8040B8DF8000030
:1017E00000208DF80100EB46012003E057F804BB10
:1017F0004FF0FF3061074FF0000102D40DE008F117
:101800000101884649450FDA8045F8DB1BF80810CE
:101810000029F4D108E008F1010188468142FADB91
:101820001BF808100029F6D1DDE90F23AAEB080008
:101830008146214600F036F9304400EB080604E00A
:10184000DDE90F121BF8010B9047B8F10108F7D240
:1018500021464846F7E00A21C4F302534FF0000B3B
:101860000891022B04D001CFC117032B09D00AE045
:10187000FF1D27F00707F7E8020108E032E01FE04C
:1018800020E000B2C117042B01D140B2C117031EE2
:1018900071F1000307DA4FF0000CD0EB0C006CEB99
:1018A00001012D2302E0230504D52B238DF82430DC
:1018B000012303E0E30701D02023F7E7984658E02F
:1018C0000A2110E010210EE010204FF0000B0890CC
:1018D0000CE010214FF0000B44F004044FF0080915
:1018E000089103E008214FF0000B0891C4F3025364
:1018F000022B04D001CF0021032B06D006E0FF1DF0
:1019000027F00707F7E8020103E080B2042B00D1BB
:10191000C0B24FF0000823072BD5702A07D0DDF89E
:1019200020C08CF0100C5CEA0B0C05D00EE04023BC
:101930008DF82430012308E050EA010306D030235B
:101940008DF824308DF8252002239846DDF820C03C
:101950008CF0080C5CEA0B0C0BD150EA010301D1AE
:10196000630706D530238DF824304FF00108A9F124
:101970000109582A04D038A20B9208AA0A920BE057
:101980003AA2F9E75B46089AFEF705FC0B9B9B5CC5
:101990000A9A521E0A92137050EA0102F2D10A9872
:1019A000ADEB000000F1200B600702D524F4803479
:1019B00001E04FF00109D94502DDA9EB0B0000E081
:1019C000002000EB0B0141440890AAEB010AE00360
:1019D00006D4DDE90F232146504600F063F80644A3
:1019E0004FF0000908E009A911F80900DDE90F121C
:1019F000904709F10109761CC145F4DBE0030CD5E1
:101A0000DDE90F232146504600F04CF8064404E07F
:101A1000DDE90F1230209047761C0899481E089087
:101A20000029F5DC08E00A980A990078491C0A9117
:101A3000DDE90F129047761CBBF10001ABF1010B01
:101A4000F1DC21465046DDE90F2300F019F8064489
:101A50006D1C1BE60928010030313233343536372E
:101A600038396162636465660000000030313233EA
:101A7000343536373839414243444546000000008A
:101A80002DE9F041044600251E461746880404D47B
:101A900005E039462020B0476D1C641EF9D5284664
:101AA000BDE8F0812DE9F041044600251E46904630
:101AB000C80301D5302700E02027880404D505E0BD
:101AC00041463846B0476D1C641EF9D52846BDE82E
:101AD000F08100002DE9F04105460E461746102121
:101AE0001C48FEF7CAFC00240BE0FF2000F0ACF815
:101AF00000F0FF08B8F1FE0F01D1002404E0601CE3
:101B000084B2B4F5FA6FF0DB00BFB4F5FA6F06D11A
:101B100010211048FEF7B3FC0120BDE8F08100243D
:101B200005E0FF2000F090F82855601C84B2B44214
:101B3000F7DBFF2000F088F8FF2000F085F837B1D0
:101B400010210448FEF79BFCFF2000F07DF80020E8
:101B5000E3E70000000801402DE9F04106460C468D
:101B60001746FF2000F070F810211A48FEF785FC98
:101B700046F0400000F068F8200E00F065F8C4F36D
:101B8000074000F061F8C4F3072000F05DF8E0B210
:101B900000F05AF8384600F057F84FF000080AE015
:101BA000FF2000F051F8C5B2FF2D00D006E008F18B
:101BB000010000F0FF08B8F1C80FF1DB00BF1021F1
:101BC0000448FEF75CFCFF2000F03EF82846BDE824
:101BD000F0810000000801402DE9F04106460C4666
:101BE0001746FF2000F030F810211648FEF745FC9C
:101BF00046F0400000F028F8200E00F025F8C4F36D
:101C0000074000F021F8C4F3072000F01DF8E0B20F
:101C100000F01AF8384600F017F84FF000080AE014
:101C2000FF2000F011F8C5B2FF2D00D006E008F14A
:101C3000010000F0FF08B8F1C80FF1DB00BF284633
:101C4000BDE8F0810008014010B5044600BF022144
:101C50000948FFF7D7FA0028F9D021460648FFF7D0
:101C6000DDFA00BF01210448FFF7CCFA0028F9D0C3
:101C70000148FFF7D0FA10BD003001400A68531C3C
:101C80000B6010707047000070B504460D46607818
:101C900001232A4604F1300100F0CAFC08B10320F8
:101CA00070BD94F82E1294F82F0241EA00204AF6F3
:101CB0005521884201D00220F2E794F8690001061C
:101CC00094F8680041EA004194F8670041EA002076
:101CD00094F86610084320F07F400E49884201D1F5
:101CE0000020DDE794F88500010694F8840041EABD
:101CF000004194F8830041EA002094F882100843E0
:101D000020F07F400349884201D10020C8E701202C
:101D1000C6E7000046415400024600E0521C10781D
:101D200010B110788842F9D1107870472DE9F74F3B
:101D300086B00698006800900098007830380590CA
:101D4000059809280AD8009840783A2806D10098C2
:101D5000801C009006990098086001E00020059022
:101D6000059818B10B2009B0BDE8F08FC749059858
:101D700051F82040079804600CB90C20F3E7207854
:101D800078B1607800F07DFC804608F0010040B931
:101D9000089820B108F0040008B10A20E3E7002009
:101DA000E1E70020207005986070607800F0F5FB96
:101DB000804608F0010008B10320D4E7089820B15C
:101DC00008F0040008B10A20CDE74FF0000A5146A0
:101DD0002046FFF759FF0546012D13D104F5F7778B
:101DE000387978B1F87A0106B87A41EA0041787A10
:101DF00041EA0020397A40EA010A51462046FFF7BD
:101E000043FF0546032D01D10120ACE70DB10D20A4
:101E1000A9E73B20015D94F83C0041EA0020B0F5C1
:101E2000007F01D00D209EE74620015D94F8470019
:101E300041EA0029B9F1000F0ED194F857000106CC
:101E400094F8560041EA004194F8550041EA002018
:101E500094F8541040EA0109C4F81C904020065D33
:101E6000E670012E03D0022E01D00D207BE709FB86
:101E700006F93D20005D0646A07016B1701E304088
:101E800008B10D206FE74120015D94F8420041EA5E
:101E900000202081207A00F00F0008B10D2062E7B9
:101EA0004320015D94F8440041EA00200490049826
:101EB00070B994F85300010694F8520041EA0041C9
:101EC00094F8510041EA002094F85010084304901F
:101ED0003E20015D94F83F0041EA00200190019806
:101EE00008B90D203FE701984844218900EB111003
:101EF0000390DDE90301814201D20D2033E7DDE9E2
:101F00000310401AA178B0FBF1FBBBF1000F01D127
:101F10000D2028E7012540F6F670834500D3022501
:101F20004FF6F670834500D303250BF10200A06144
:101F300003985044A062019850442062032D16D1AA
:101F4000208908B10D200EE794F85F00010694F88F
:101F50005E0041EA004194F85D0041EA002094F8F7
:101F60005C1008436062A0698000029014E0208940
:101F700008B90D20F7E6206A48446062022D02D1BC
:101F8000A069400007E0207E00F00100A16901EB9C
:101F9000410100EB51000290E169029800F2FF104C
:101FA000B1EB502F01D20D20DDE64FF0FF30206164
:101FB0000020E060032D5CD1607194F8601094F80B
:101FC000610041EA0020504460616078012304F11F
:101FD0003001626900F02CFBF0BB94F82E1294F8EB
:101FE0002F0241EA00204AF65521884241D1332090
:101FF000005D01063220005D41EA00413120005DB4
:1020000041EA002094F8301008432149884230D139
:1020100094F81702010694F8160241EA004194F878
:10202000150241EA002094F8141208431949884225
:102030001FD194F81F02010694F81E0241EA0041E4
:1020400094F81D0241EA002094F81C120843E06055
:1020500094F81B02010600E00BE094F81A0241EA32
:10206000004194F8190241EA002094F8181208433C
:102070002061257008480088401C80B2064908800D
:10208000E0800020E062207100BF6CE62C0200209E
:102090005252614172724161300200200246891E33
:1020A0009069801E884201D8002070479378906A1A
:1020B00001FB0300F9E72DE9F04704468946B9F131
:1020C000000F06D1E76817B1A069B84211D80127FF
:1020D0000FE04946204600F095FE0646022E02D249
:1020E0000120BDE8F087A069B04201D93046F8E789
:1020F0004F463D4600BF6D1CA069A84204D802258A
:10210000BD4201D90020ECE72946204600F07AFEC6
:10211000064606B909E0701C08B1012E01D130460F
:10212000DFE7BD42E7D10020DBE700BF6FF0704280
:102130002946204601F03FF88046B8F1000F08D14B
:10214000B9F1000F05D02A464946204601F033F880
:102150008046B8F1000F09D1E5602069401C68B1E4
:102160002069401E20610120607107E0B8F1010F75
:1021700002D14FF0FF3000E0012005462846B0E7CD
:102180002DE9F35F009886690B222021304600F08C
:10219000CFFF00200546804682464FF0080901988F
:1021A000D0F800B000BF50460AF1010A1BF8004009
:1021B000202C03DD2F2C01D05C2C00D152E02E2CE2
:1021C00001D0C8450ED3B9F1080F01D12E2C02D091
:1021D0000620BDE8FC9F4FF008084FF00B09A80649
:1021E000050EE0E7802C01DB45F00305812C1DDBAB
:1021F000FE2C1BDC50460AF1010A1BF80070402F30
:1022000001DB7E2F03DD802F05DBFE2F03DCA9F130
:102210000100404501D80620DBE7404608F10108EF
:102220003454404608F1010837541AE0214622A0F0
:10223000FFF772FD08B10620CBE7412C04DB5A2CD6
:1022400002DC45F0020508E0612C06DB7A2C04DC98
:1022500045F00105A4F12000C4B2404608F1010890
:102260003454A0E700BF0BEB0A0101980160202C59
:1022700001DC042000E000200446B8F1000F01D189
:102280000620A6E73078E52801D105203070B9F1A5
:10229000080F01D1A806050E05F00300012801D1A1
:1022A00044F0100405F00C00042801D144F00804A7
:1022B000F47200208DE70000222A2B2C3A3B3C3D93
:1022C0003E3F5B5D7C7F00002DE9F041044600212C
:1022D000204600F014F9054615B12846BDE8F08106
:1022E00000BF2169206800F02DFF054605B116E00A
:1022F000666937780FB9042511E0F07A00F008001C
:1023000030B90B223046A16900F0F2FE00B906E0B8
:102310000021204600F006F80546002DE1D000BF60
:102320002846DBE72DE9F04104468846E088401C5A
:1023300086B20EB1206910B90420BDE8F08106F024
:102340000F0000286FD12069401C2061E06828B987
:1023500020680089B04266DC0420EEE720688078BF
:10236000401E00EA161000285DD1E168206800F0E8
:1023700049FD0546012D01D80220DEE7681C08B999
:102380000120DAE720688069A84246D8B8F1000F3A
:1023900001D10420D1E7E1682068FFF78CFE0546F3
:1023A0000DB90720C9E7012D01D10220C5E7681C3E
:1023B00008B90120C1E70021206800F0C3FE08B180
:1023C0000120BAE7216801F130004FF400720021CA
:1023D00000F0AEFE29462068FFF760FE2168C86263
:1023E000002710E00120216808710021206800F01A
:1023F000A9FE08B10120A0E72068C06A401C21683E
:10240000C862781CC7B220688078B842EADC2068CD
:10241000C06AC01B2168C86200BFE5602946206809
:10242000FFF73CFE2061E6802068303006F00F01A7
:1024300000EB4110606100207FE72DE9F041044688
:1024400004251BE02169206800F07CFE054605B1EB
:1024500017E067693E780EB9042512E0E52E06D034
:102460002E2E04D0F87A00F0080000B909E000210F
:102470002046FFF757FF054605B102E02069002816
:10248000E0D100BF0DB1002020612846BDE8F081F9
:102490002DE9F04104460021204600F030F80546C1
:1024A000ADB900BF2169206800F04CFE054605B1BA
:1024B0000CE060690678E52E00D006B906E001213F
:1024C0002046FFF72FFF0546002DEBD000BF9DB93A
:1024D0002169206800F036FE05466DB96769202243
:1024E0000021384600F024FE0B223846A16900F096
:1024F00012FE0120216808712846BDE8F0812DE90F
:10250000F04104460E46E680A568012D03D0206800
:102510008069A84202D80220BDE8F0812DB9206868
:102520000078032801D12068456A65B9E560206814
:102530000089B04201DC0220EEE72068406A00EB2F
:102540001610206120E020688078070112E02946FB
:10255000206800F057FC0546681C08B90120DBE73D
:10256000022D03D320688069A84201D80220D3E756
:10257000F01B86B2BE42EADAE56029462068FFF722
:102580008DFD00EB161020612068303006F00F0141
:1025900000EB411060610020BEE770B5054625B133
:1025A000012D0AD0022D0CD109E0FEF7D3F8044624
:1025B0000CB9002070BD0120FCE70120FAE70120E2
:1025C000F8E70120F6E7000070B506460C46154610
:1025D0000EB1042070BD1548FDF755FF0F2C22D217
:1025E000DFE804F0080A211321191A1B21211C1D00
:1025F0001E1F20000020EDE70C48406C0B49896C41
:10260000B0FBF1F028600020E4E70848B0F848008B
:1026100028800020DEE706E005E004E003E002E0B9
:1026200001E000E000BF00BF0420D3E7A0060020C7
:102630002DE9F0410646884617461C4614B9042089
:10264000BDE8F08126B1012E15D0022E15D113E080
:10265000012C05D141463846FEF72AFB054605E028
:10266000224641463846FEF7E1FA05460DB90020FC
:10267000E6E70120E4E701E000E000BF00BF012041
:10268000DEE7014621B1012904D0022906D103E089
:10269000002070470020FCE70020FAE700BF00BFE1
:1026A0000120F6E72DE9F0410646884617461C460C
:1026B00014B90420BDE8F08116B1022E14D112E045
:1026C000012C05D141463846FEF716FC054605E0CB
:1026D000224641463846FEF77BFB05460DB90020F1
:1026E000E8E70120E6E700E000BF00BF0120E1E7E6
:1026F00070B50446204600F0C0F905460DB900202B
:102700002060284670BD2DE9F74F82B08B461446F5
:102710000022214602A8FFF709FB0190019800283A
:1027200077D1206801698069801E814204D82068C1
:102730000069CBF800006CE0206890F800A000264B
:10274000BAF1010F1DD1022700BF3946206800F001
:1027500059FB804608F1010010B9012001900FE0FB
:10276000B8F1010F02D10220019009E0B8F1000F89
:1027700000D1761C781C0746216889698842E4D319
:102780003DE0206887692068006A00904FF00009EA
:10279000002500BFB9F1000F0FD1009A531C11465C
:1027A0000093206800F0CEFC0190019800B125E074
:1027B000206800F130054FF40079BAF1020F09D119
:1027C0002878697840EA012000B9761CAD1CA9F18F
:1027D000020910E0E8780006A97840EA014069782B
:1027E00040EA01202978084320F0704000B9761CA7
:1027F0002D1DA9F10409781E071ECBD100BF20684A
:102800000661BAF1030F02D1012021684871CBF8AB
:102810000060019805B0BDE8F08F00000246012A73
:1028200001DB0B207047074850F822300BB1002025
:10283000187009B100200870024840F822100020EA
:10284000F0E700002C0200202DE9F7438AB005468E
:1028500016460020286006F01F0626F0010203A994
:102860000BA8FFF763FA0746CDF824D027B903A8D1
:102870000B9900F065FA0746089C0FB904B90627C2
:1028800006F01C00002858D04FB1042F03D103A834
:10289000FFF7FEFD074646F00806089C09E006F033
:1028A000040008B1082704E0E07A00F0110000B14C
:1028B0000727002F40D106F0080000283CD000F088
:1028C00013FB804684F80E804FEA1821E1734FEA2B
:1028D000184121744FEA186161740020E07220777A
:1028E00000216177A177E177A17EE07E41EA0021B6
:1028F000227D607D42EA002041EA00490020A07666
:102900000021E17620756175012003990871B9F104
:10291000000F11D00398D0F82C804946039800F09E
:10292000E5FC074647B9A9F101000399C860414693
:10293000039800F007FC07460EE06FB9E07A00F05C
:10294000100008B1042707E006F0020020B1E07A89
:1029500000F0010000B1072747B906F0080008B1F0
:1029600046F020060398C06AE8612C62F7B9AE71A0
:10297000A17EE07E41EA0021227D607D42EA0020C6
:1029800041EA00402861E07F0106A07F41EA004162
:10299000607F41EA0020217F0843E8600020A860B2
:1029A000A861039828600398C088A88038460DB0B5
:1029B000BDE8F08333B583B004460022214604A865
:1029C000FFF7B4F905464DBBC4F818D0204604996A
:1029D00000F0B6F90546F5B9606998B16069C07A4A
:1029E00000F0100068B16069817EC07E41EA00217C
:1029F0006069027D407D42EA002041EA0040A0601B
:102A000000E005253DB92068C088A080002120464F
:102A1000FFF775FD0546042D00D10525284605B0B4
:102A200030BDFEB504460E46A188206800F049FD81
:102A3000054605BB2EB900212046FFF760FD05467F
:102A400019E0C4F818D02046FFF7F7FC0546042D1E
:102A500002D10020206100256DB93146204600F0EA
:102A600045FA00212046FFF75DFC0546042D02D102
:102A70000020206100252846FEBD2DE9F0410446D6
:102A8000A188206800F01DFD0746002F4FD1A079D6
:102A900000F0200000284AD0A07900F0400078B172
:102AA00021684878012304F12401A269FFF7FAFDA7
:102AB00010B10120BDE8F081A07920F04000A071A4
:102AC000E169206800F03EFB0746002F2FD1256A00
:102AD000E87A40F02000E872207B2877A089010A7C
:102AE0006977E068010CA977E068010EE977207C3E
:102AF000A876208A010AE9762069000C28752069E9
:102B0000010E697500F0F0F90646AE75310AE975F7
:102B1000310C2976310E6976A07920F02000A07161
:102B2000012021680871206800F066FC07463846DD
:102B3000C0E72DE9FF4F83B0044615469B46049835
:102B400001900020CBF80000A188206800F0B9FCBB
:102B50000290029818B1029807B0BDE8F08FA079F2
:102B600000F0800008B10220F6E7A07900F0020032
:102B700008B90720F0E7E0682844E168884200D2FD
:102B80000025CDE02089C0F30800002877D1206817
:102B90008078401EA16800EA512000F0FF0ABAF1D7
:102BA000000F2AD1A06858B9D4F81080B8F1000FEE
:102BB0000BD100212068FFF77EFA8046206104E0F7
:102BC00061692068FFF777FA8046B8F1000F00D1FD
:102BD000A9E0B8F1010F05D1A07940F08000A07103
:102BE0000220B9E708F1010028B9A07940F080007F
:102BF000A0710120B0E7C4F81480A07900F0400073
:102C000090B121684878012304F12401A269FFF7FB
:102C100049FD28B1A07940F08000A07101209BE718
:102C2000A07920F04000A07161692068FFF736FAB2
:102C300006462EB9A07940F08000A07102208BE7F3
:102C400056444FEA5529B9F1000F2FD00AEB09007D
:102C500021688978884203D920688078A0EB0A0926
:102C600009F0FF032168487832460199FFF71AFD01
:102C700030B1A07940F08000A07101206CE72CE019
:102C8000A069801B48450ED2A069801B019A02EB07
:102C900040214FF4007204F1240000F03CFAA079C6
:102CA00020F04000A0714FEA49272DE0A069B04212
:102CB00012D0D4E9020188420ED22168487801235B
:102CC000324604F12401FFF7B3FC28B1A07940F0AB
:102CD0008000A07101203FE7A6612089C0F30800B1
:102CE000C0F50077AF4200D92F462189C1F3080211
:102CF00004F1240150183A46019900F00CFAA07929
:102D000040F04000A07100BF019838440190A068D5
:102D10003844A060DBF800003844CBF80000ED1B1D
:102D2000002D7FF42FAF00BFD4E90201884201D902
:102D3000A068E060A07940F02000A07100200BE7BF
:102D40002DE9F3410446019800782F2803D001981B
:102D500000785C2802D10198401C01900020A060FE
:102D600001980078202807D200212046FFF7C7FBF2
:102D70000646002060612FE000BF01A92046FFF752
:102D8000FFF9064606B126E02046FFF79DFA064603
:102D9000A069C77A46B1042E00D01CE000BF07F03E
:102DA000040000B9052616E007F0040000B112E0A7
:102DB0006569E87A00F0100008B905260BE0A97EE5
:102DC000E87E41EA00212A7D687D42EA002041EA4E
:102DD0000040A060D1E700BF3046BDE8FC810000A4
:102DE00070B504460D46E1B20548FEF707FC00BF8A
:102DF00040210348FEF764FB0028F9D0204670BD4F
:102E0000003801402DE9F04105460C46022C02D362
:102E1000A869A04202D80120BDE8F08128780128E5
:102E200004D002282CD003285AD13DE0274607EBD6
:102E30005707286A00EB5721284600F083F900B1B4
:102E40004EE0C7F3080105F1300010F801807F1C47
:102E5000286A00EB5721284600F074F900B13FE0E2
:102E6000C7F3080105F13000405C48EA002804F08F
:102E7000010010B14FEA1810CEE7C8F30B00CBE702
:102E8000286A00EB1421284600F05CF900B127E025
:102E900040F2FF1000EA440105F130000E183078CE
:102EA000717840EA0120B7E7286A00EBD411284680
:102EB00000F048F900B113E040F2FF1000EA84018D
:102EC00005F130000E18F0780006B17840EA0140B4
:102ED000717840EA01203178084320F070409BE788
:102EE00000BF4FF0FF3097E700207047F0B5054670
:102EF0000B4603F109022F69002F40D06869067B59
:102F000000210AE0445C202C00D108E0052C00D10F
:102F1000E52400BF02F8014B491C0829F2D300BF89
:102F2000077A202F0FD02E2702F8017B082107E017
:102F3000445C202C00D105E000BF02F8014B491C85
:102F40000B29F5D300BFC77A1F72C77F4FEA076C02
:102F5000877F4CEA074C477F4CEA072790F81CC054
:102F600047EA0C071F6090F818C0477E4CEA072715
:102F70009F8090F816C0C77D4CEA0727DF800027A6
:102F80001770F0BDFEF74AFAFDF7E0FE0121224876
:102F9000FDF76AFA18B921A0FEF736FB10E026A06B
:102FA000FEF732FB00BF01211B48FDF75DFA002848
:102FB000F9D129A0FEF728FB6FF07F40FDF77BF9E0
:102FC0002E490020FFF72AFC06222DA12F48FFF7EB
:102FD0003BFC2F4908700846007870B92D4B23221E
:102FE0002D492A48FFF7A5FD294908702BA0FEF7B7
:102FF0000BFB2648FFF77CFB06E0254800780828F5
:1030000002D130A0FEF700FB384800F0A3F9FEF72C
:10301000B3F800BFFEE70000000C01402D2D205347
:103020004420636172642064657465637465642020
:103030004F4B200D0A0000002D2D20506C65617350
:103040006520636F6E6E6563742061205344206356
:10305000617264200D0A00002D2D2053442063610D
:10306000726420636F6E6E656374696F6E20646551
:10307000746563746564200D0A0000004C02002032
:10308000303A2F44656D6F2E545854007C04002054
:1030900000000020040000200802002044656D6F3D
:1030A0002E545854207375636365737366756C6C26
:1030B00079206372656174656420202020202020BF
:1030C000200D0A0044656D6F2E54585420637265BC
:1030D0006174656420696E20746865206469736B2F
:1030E0002020202020200D0A0000000008000020E1
:1030F000F0B503461C460D46002000BF161EA2F187
:10310000010207D014F8017B15F801CBA7EB0C06E0
:10311000301EF3D0F0BD70B503460C4603E014F842
:10312000015B03F8015B151EA2F10102F7D170BD2E
:1031300030B5034601E003F8011B141EA2F10102A1
:10314000F9D130BD2DE9F04104460D46E66AAE42A4
:103150002FD0207908B360780123324604F1300182
:10316000FFF7A0FA10B10120BDE8F0810020207126
:10317000D4E907100844B0420FD9E7780AE0E069C3
:10318000064460780123324604F13001FFF78AFAE1
:10319000781EC7B2012FF2DC00BF55B16078012361
:1031A0002A4604F13001FFF743FA08B10120DBE7BA
:1031B000E5620020D8E72DE9F04705460E461746A0
:1031C000022E02D3A869B04202D84FF002088AE06A
:1031D0002878012804D0022841D003287DD154E06A
:1031E000B14609EB5909286A00EB59212846FFF737
:1031F000A9FF8046B8F1000F00D071E0C9F30801C3
:1032000005F130000C1806F0010020B1F9B2207869
:1032100061F31F1000E03846207009F10109012018
:103220002871286A00EB59212846FFF78BFF80465A
:10323000B8F1000F00D053E0C9F3080105F13000E8
:103240000C1806F0010010B1C7F3071005E0207854
:1032500000F0F000C7F303210843207040E0286A23
:1032600000EB16212846FFF76DFF8046B8F1000FEE
:1032700000D035E040F2FF1000EA460105F13000D1
:103280000C182770380A60702AE0286A00EBD61103
:103290002846FFF757FF8046B8F1000F00D01FE027
:1032A00040F2FF1000EA860105F130000C18E078CA
:1032B0000006A17840EA0140617840EA01202178C7
:1032C000084300F0704007432770380A6070380CDC
:1032D000A070380EE07003E0FFE74FF0020800BF77
:1032E00000BF012028714046BDE8F0872DE9F0417C
:1032F00004460E46022E02D3A069B04201D802272E
:1033000025E000271FE031462046FFF77BFD0546FC
:1033100005B91BE0012D01D1022717E0681C08B98F
:10332000012713E0002231462046FFF744FF0746FD
:1033300007B10BE02069401C20B12069401C2061CE
:10334000012060712E46A069B042DCD800BF38462B
:10335000BDE8F08170B58EB00446214601A8FFF7A4
:1033600029FB2049087008460078002835D12046FE
:10337000FCF70AFF054600BF08A901A8FFF751FBAB
:10338000184908700846007810B99DF8290000B95E
:1033900022E09DF829002E2800D1EDE70DF1290645
:1033A0009DF8280000F0100080B1601932460EA18F
:1033B000FEF73AF92046FFF7CDFF0A4908700846A4
:1033C000007800B108E00020605504E03246214654
:1033D00006A0FEF719F9CFE700BF024800780EB04B
:1033E00070BD0000000000202F25730025732F25DD
:1033F00073200D0A0000000070B50446002120462D
:10340000FFF7A0FE0546002D59D1207803284FD1A3
:10341000607900284CD00020E0624FF40072002157
:1034200004F13000FFF784FE552184F82E12AA2102
:1034300084F82F12522084F8300052213120015597
:10344000612132200155412133200155722184F838
:10345000141284F81512412184F81612612184F89F
:103460001712217C84F81812208A010A84F8191294
:103470002069010C84F81A122069010E84F81B12CD
:10348000217B84F81C12A089010A84F81D12E068CF
:10349000010C84F81E12E068010E84F81F12607897
:1034A000012304F130016269FFF7FCF8002060712C
:1034B000607800221146FFF787F800B10125284601
:1034C00070BD70B504460D4624B1207810B1E08877
:1034D000A84201D0092070BD6078FFF7D2F800F053
:1034E000010008B10320F6E70020F4E70C350008DE
:1034F000000000204C0200005A0200084835000875
:103500004C020020AC080000601600088103FF3068
:103510003A01FFC0235468616E6B20796F75206695
:103520006F72207573696E67204F70656E3130372A
:103530005620A3A1200D0A2D0102030404600906F0
:08354000070809020406080057
:04000005080001519D
:00000001FF
